:100000000C942A000C9445000C9445000C94450077
:100010000C9445000C9445000C9445000C9445004C
:100020000C9445000C9445000C9445000C9445003C
:100030000C9445000C9445000C9445000C9445002C
:100040000C9445000C9445000C9445000C9445001C
:100050000C94450011241FBECFE5D8E0DEBFCDBF14
:1000600010E0A0E6B0E0E8E0F6E002C005900D92F6
:10007000A036B107D9F710E0A0E6B0E001C01D92AC
:10008000A036B107E1F70C9401010C9400001ABAF4
:100090001BBA3D9887B1806C87B986B1806A86B9F2
:1000A00086B1856086B9319886B1877A86B980B77E
:1000B0008F7180BF08958330910529F184309105B7
:1000C0004CF481309105A9F082309105BCF4892B64
:1000D00069F036C08530910509F185309105CCF085
:1000E0008630910509F1079729F12AC087B1807EF2
:1000F00026C087B1817E87B9389A22C087B1827EB7
:1001000087B9399A1DC087B1837E87B987B183606B
:1001100016C087B1847E87B93A9A12C087B1857EAE
:1001200087B987B185600BC087B1867E87B987B1F3
:10013000866005C087B1877E87B987B1876087B938
:10014000369A349BFECF349A84B1282F332785B159
:100150009927982F8827822B932B0895AC019B0118
:10016000215030408FEF82BB81E090E002C0880FC9
:10017000991F2A95E2F7982F909582B3892382BB25
:100180004430510571F14530510584F44130510539
:1001900009F1423051051CF4452B79F130C0423051
:1001A0005105D1F043305105D1F029C047305105F8
:1001B000F1F0483051053CF445305105A1F046308E
:1001C000510599F01CC04830510599F0493051054E
:1001D00091F015C081E401C08BE385BB08958BE6E7
:1001E000FCCF8DE4FACF8EE6F8CF8EE7F6CF83E42E
:1001F000F4CF8FE7F2CF8FE6F0CF87E7EECFAF9A5D
:100200000895CFE5D8E0DEBFCDBF8FEF81BB84BBC3
:1002100015BA12BA63E070E08CE090E00E94AE0084
:100220000E94470080E090E00E945B00AA2797FDB3
:10023000A095BA2FBC01CD010E943D02DC01CB018B
:1002400021EE3AE744E250E4BC01CD010E94950260
:10025000DC01CB0120E030E040E85AE3BC01CD01F5
:100260000E949502DC01CB012AE037ED43E25CE31A
:10027000BC01CD010E94DA015B016C010E942002E9
:100280007B018C01CB01AA2797FDA095BA2FBC0159
:10029000CD010E943D02DC01CB019C01AD01C601F4
:1002A000B5010E949701DC01CB0120E030E040E283
:1002B00051E4BC01CD010E9495025B016C01C701B4
:1002C0006AE070E00E94DD024C01C7016AE070E064
:1002D0000E94DD02CB016AE070E00E94DD028C0129
:1002E000C601B5010E9420026B017C0161E070E053
:1002F000C8010E94AE0000ED17E0C8010197F1F7B8
:1003000062E070E0C4010E94AE0062E070E082E250
:1003100090E00E94AE00C8010197F1F763E070E041
:10032000C6010E94AE00C8010197F1F77BCF50587B
:10033000192ECDD001D0B0C0BA1762077307840759
:100340009507B1F188F40EF410940B2EBA2FA02D5E
:10035000062E622F202D072E732F302D082E842F6E
:10036000402D092E952F502DFF275523B9F0591BED
:1003700049F0573E98F0469537952795A795F04058
:100380005395C9F776F0BA0F621F731F841F30F4BC
:10039000879577956795B795F040939517FA0F2E47
:1003A0000895BF1BBB27BA0B620B730B840BF6CFF0
:1003B000DEF6B9C08CD001D06FC0552359F0992317
:1003C00069F09F575F57951B33F442F4903811F44E
:1003D000915805C079C091589F3F09F4A4C0BB272C
:1003E000112462177307840730F4660F771F881F84
:1003F000BB1F915098F311D00F920FD00F920DD0D8
:10040000A0E82617370748071B0609F0A048BA2FAF
:10041000602D7F918F9100240895A0E80024621739
:1004200073078407B10528F0621B730B840BB109B5
:100430000A2A660F771F881FBB1FA69581F70895AC
:1004400097FB51D09F3738F0FEE9F91B982F872F83
:10045000762F6B2F05C064C0969587957795679525
:10046000F150D0F73EF490958095709561957F4F4F
:100470008F4F9F4F0895E89403C097FB0EF4F3DF6E
:10048000B62F672F782F892F9EE9002405C09A95F3
:10049000BB0F661F771F881F11249923A1F08823A3
:1004A000B2F79F3F59F0BB0F48F421F4002011F43C
:1004B00060FF04C06F5F7F4F8F4F9F4F881F9795DE
:1004C000879597F908952CC09FEF80EC0895052E2D
:1004D000092607FA440F551F5F3F79F0AA27A51791
:1004E00008F051E04795880F991F9F3F31F0BB27D7
:1004F000B91708F091E0879508959F919F91112475
:10050000E3CF97FB880F991F9F3F31F0BB27B917A7
:1005100008F091E0879508959F919F911124D4CF81
:1005200066277727882799270895D1DF01D0B4CF90
:10053000992339F0552329F09F575F57950F13F4EE
:100540009AF1F1CF91589F3FE1F3629FA12D0F9255
:10055000BB27639FA00DB11DEE27729FA00DB11D9B
:10056000EE1FAF93AA27649FB00DE11D739FB00DDE
:10057000E11DAA1F6627829FB00DE11DA61F55270A
:10058000749FE00DA11D551F839FE00DA11D561FF7
:10059000849FA00D511D852F7A2F6E2F1F900F90D5
:1005A00088231AF4939539F48FCF000C111CBB1FCC
:1005B000661F771F881F0128089597FB092E0726BD
:1005C0000AD077FD04D00CD006D000201AF4709524
:1005D00061957F4F0895F6F7909581959F4F089507
:1005E000AA1BBB1B51E107C0AA1FBB1FA617B70759
:1005F00010F0A61BB70B881F991F5A95A9F7809575
:080600009095BC01CD010895A5
:00000001FF
