:100000000C9448000C945D000C945D000C945D0011
:100010000C945D000C945D000C945D000C945D00EC
:100020000C945D000C945D000C945D000C945D00DC
:100030000C945D000C945D000C945D000C945D00CC
:100040000C945D000C945D000C945D000C945D00BC
:100050000C945D00036EDB363D9A9999993DABAAED
:10006000AA2A3E000000803F072C7AA5BA6CC590F2
:10007000DA3B9365FC8BBC53F810FD3C5692834DE4
:10008000BD879D3AB63DCBC9BF5BBE73DA0FC93F92
:1000900011241FBECFE5D4E0DEBFCDBF10E0A0E647
:1000A000B0E0E2E5FDE002C005900D92A236B10796
:1000B000D9F70E9462030C94A7060C9400001ABAA8
:1000C0003D983F983E9A86B1836086B9329886B152
:1000D000877E86B980B78F7180BF86B1806A86B906
:1000E00008958330910529F1843091054CF48130D5
:1000F0009105A9F082309105BCF4892B69F036C0D6
:100100008530910509F185309105CCF08630910557
:1001100009F1079759F524C087B1807E26C087B1C1
:10012000817E87B9389A22C087B1827E87B9399A91
:100130001DC087B1837E87B987B1836016C087B140
:10014000847E87B93A9A12C087B1857E87B987B114
:1001500085600BC087B1867E87B987B1866005C090
:1001600087B1877E87B987B1876087B924B130E0CE
:1001700045B1742F60E0622B732B882777FD809543
:10018000982F0E94C10408954F925F926F927F92C0
:100190008F929F92AF92BF92CF92DF92EF92FF9297
:1001A0000F931F93CF93DF93EC013B01882477FCDF
:1001B0008094982C89E1482E512C3FC0C401B30192
:1001C0000E94C1045B016C0120E030E04AE753E487
:1001D0000E94C6057B018C0120E030E040E85FE32F
:1001E0000E94220488231CF461E070E022C0C80150
:1001F000B70120E03FEF4FE757E40E94C205181611
:10020000A4F4C601B50120E030E040E251E40E94D0
:10021000C6050E94930405C0C2010197F1F7615021
:10022000704061157105C1F707C0C801B7010E9490
:100230009304CB010197F1F721971C161D060CF4CE
:10024000BDCFDF91CF911F910F91FF90EF90DF9085
:10025000CF90BF90AF909F908F907F906F905F9066
:100260004F9008958FEF84BB81BB15BA12BA0895E1
:10027000959A84EF91E0FC013197F1F795980197F9
:10028000F1F70895939A089593980895939A85BBEA
:10029000959A84EF91E0FC013197F1F795980197D9
:1002A000F1F70895939885BB959A84EF91E0FC014E
:1002B0003197F1F795980197F1F708950F931F93F0
:1002C00088E893E10197F1F780E390E00E9446010E
:1002D00084EC99E00197F1F780E390E00E944601F9
:1002E0000AEF10E0C8010197F1F780E390E00E9467
:1002F0004601C8010197F1F788E290E00E9452019F
:10030000C8010197F1F71F910F91089594980895EE
:10031000949A08958130910569F49398615865BB6A
:10032000959A84EF91E0FC013197F1F79598019748
:10033000F1F70895029761F49398615465BB959A1B
:1003400084EF91E0FC013197F1F795980197F1F76F
:100350000895939A85BB959A84EF91E0FC013197BB
:10036000F1F795980197F1F708952F923F924F92E8
:100370005F926F927F928F929F92AF92BF92CF9235
:10038000DF92EF92FF920F931F93CF93DF934C0175
:10039000C0E0D0E094EF692E91E0792E1B01442457
:1003A00037FC4094542C5CC0C031D10561F4939863
:1003B00080EC85BB959AC3010197F1F79598C3012D
:1003C0000197F1F7939A939A25BB959AC3010197E8
:1003D000F1F79598C3010197F1F7C201B1010E94AD
:1003E000C1045B016C0120E030E04AE753E40E9465
:1003F000C6057B018C0120E030E040E85FE30E940D
:10040000220488231CF461E070E023C0C801B70116
:1004100020E03FEF4FE757E40E94C2051816ACF406
:10042000C601B50120E030E040E251E40E94C6057B
:100430000E94930406C089E190E00197F1F76150B2
:10044000704061157105B9F707C0C801B7010E9476
:100450009304CB010197F1F70894811C911C21961C
:10046000F4012081222309F09FCFDF91CF911F91CA
:100470000F91FF90EF90DF90CF90BF90AF909F9043
:100480008F907F906F905F904F903F902F90089546
:10049000939A805D85BB959A84EF91E0FC0131973A
:1004A000F1F795980197F1F708950F931F93DF9354
:1004B000CF93CDB7DEB72A970FB6F894DEBF0FBE45
:1004C000CDBF9C010097D9F4939A80E385BB959AA0
:1004D00084EF91E0FC013197F1F795980197F1F7DE
:1004E000E0E0F0E03197EE0FFF1FDE011196AE0F56
:1004F000BF1FAE014150504024EF31E026C08E01B5
:100500000F5F1F4FE0E0F0E0C9016AE070E00E9479
:100510008006D8018D939D938D013196C9016AE0C3
:1005200070E00E9480069B016115710569F7DACFC2
:10053000939A8C91805D85BB959AC9010197F1F7DB
:100540009598C9010197F1F71297A417B50781F79C
:100550002A960FB6F894DEBF0FBECDBFCF91DF91C4
:100560001F910F910895AF92BF92CF92DF92EF92B9
:10057000FF920F931F93CF93DF937B018C015A015E
:100580000E948E046B01B601882777FD8095982F15
:100590000E94C1049B01AC01C801B7010E94A603DF
:1005A0007B018C01C1E0D0E00BC0C801B70120E0A5
:1005B00030E040E251E40E94C6057B018C012196A7
:1005C000AC16BD0694F7C6010E945502939A80E6C8
:1005D00090E085BB959A84EF91E0FC013197F1F7AB
:1005E00095980197F1F7C801B7010E948E04DC01CC
:1005F000CB010E945502DF91CF911F910F91FF9087
:10060000EF90DF90CF90BF90AF900895939894981B
:1006100081E085BB959A24EF31E0C9010197F1F79C
:100620009598C9010197F1F788E385BB959AC901AF
:100630000197F1F79598C9010197F1F78CE085BB17
:10064000959AC9010197F1F79598C9010197F1F7BA
:1006500086E085BB959AC9010197F1F79598C90184
:100660000197F1F780E885BB959AC9010197F1F7E9
:100670009598C9010197F1F708958CBF88E683BF6B
:1006800083B7856083BF089583BD88E685BD85B542
:10069000856085BD089580EF88BB089582E38CBF97
:1006A00088E683BF83B7856083BF80EA88BB0895EF
:1006B00082E38CBF88E683BF83B7856083BF80E514
:1006C00088BB0895EF92FF920F931F938FEF84BB27
:1006D00087BB0E945F00369A82E090E00E94710022
:1006E00085E090E00E94710020E030E040EA50E4B4
:1006F0000E94C60520E030E040E85AE30E94C605AB
:100700002DEC3CEC4CE150E40E94A60327E73EEBC5
:100710004FE95EE30E9426040E940B047B018C01DA
:1007200083E090E00E947100C801B70120E030E052
:1007300044E353E40E94C60525E236E049E450E470
:100740000E9426040E948E0465BBC3CF5058BB276D
:10075000AA270ED0DDC1CED130F0D3D120F031F4B4
:100760009F3F11F41EF48DC10EF4E095E7FB83C1A9
:10077000E92FDFD180F3BA17620773078407950763
:1007800018F071F49EF5F7C10EF4E0950B2EBA2F18
:10079000A02D0B01B90190010C01CA01A001112487
:1007A000FF27591B99F0593F50F4503E68F11A1633
:1007B000F040A22F232F342F4427585FF3CF4695C4
:1007C00037952795A795F0405395C9F77EF41F16E6
:1007D000BA0B620B730B840BBAF09150A1F0FF0FB0
:1007E000BB1F661F771F881FC2F70EC0BA0F621F9C
:1007F000731F841F48F4879577956795B795F7958C
:100800009E3F08F0B3CF9395880F08F09927EE0F1D
:100810009795879508959F939F77EEE389379E0775
:1008200020F4E4E5F0E055D109C0E6D09058A2EA02
:100830002AED3FE049EC5FE39BDF6AD10F9007FCB4
:1008400090580895F4D008F481E008950CD060C168
:1008500058D140F04FD130F021F45F3F19F00BC177
:1008600051118AC10EC165D198F39923C9F355235B
:10087000B1F3951B550BBB27AA2762177307840793
:1008800038F09F5F5F4F220F331F441FAA1FA9F349
:1008900033D00E2E3AF0E0E830D091505040E6953B
:1008A000001CCAF729D0FE2F27D0660F771F881F9C
:1008B000BB1F261737074807AB07B0E809F0BB0B8B
:1008C000802DBF01FF2793585F4F2AF09E3F5105AF
:1008D00068F0D1C051C15F3FECF3983EDCF38695E0
:1008E00077956795B795F7959F5FC9F7880F911D25
:1008F0009695879597F90895E1E0660F771F881F11
:10090000BB1F621773078407BA0720F0621B730BC3
:10091000840BBA0BEE1F88F7E095089504D0689415
:10092000B1112AC108950DD188F09F5790F0B92FC9
:100930009927B751A0F0D1F0660F771F881F991F34
:100940001AF0BA95C9F712C0B13081F014D1B1E0F4
:10095000089511C1672F782F8827B85F39F0B93F04
:10096000CCF3869577956795B395D9F73EF4909536
:100970008095709561957F4F8F4F9F4F0895E894B4
:1009800009C097FB3EF490958095709561957F4FD7
:100990008F4F9F4F9923A9F0F92F96E9BB27939585
:1009A000F695879577956795B795F111F8CFFAF495
:1009B000BB0F11F460FF1BC06F5F7F4F8F4F9F4FC6
:1009C00016C0882311F096E911C0772321F09EE824
:1009D000872F762F05C0662371F096E8862F70E08A
:1009E00060E02AF09A95660F771F881FDAF7880F64
:1009F0009695879597F90895DF93CF931F930F935B
:100A00008B01EC01E8E6F0E03FD082D09801AE0126
:100A10008B01EC0160E070E080E89FE397DE1DD180
:100A20009801AE010F911F91CF91DF91BBC0990F3B
:100A30000008550FAA0BE0E8FEEF16161706E807A8
:100A4000F907C0F012161306E407F50798F0621BC9
:100A5000730B840B950B39F40A2661F0232B242B9E
:100A6000252B21F408950A2609F4A140A6958FEFBD
:100A7000811D811D089597F99F6780E870E060E00F
:100A800008959FEF80EC0895DF93CF931F930F930A
:100A9000FF92EF92DF927B018C01689405C0DA2E01
:100AA000EF0180D0FE01E894A59125913591459103
:100AB0005591AEF3EF015CDEFE019701A801DA94D7
:100AC00079F7DF90EF90FF900F911F91CF91DF9119
:100AD00008959F938F937F936F93FF93EF939B0161
:100AE000AC0154D0EF91FF91CFDF2F913F914F9107
:100AF0005F914CC000240A941616170618060906C2
:100B0000089500240A941216130614060506089583
:100B1000092E0394000C11F4882352F0BB0F40F40B
:100B2000BF2B11F460FF04C06F5F7F4F8F4F9F4F4B
:100B3000089557FD9058440F551F59F05F3F71F0CD
:100B40004795880F97FB991F61F09F3F79F0879534
:100B50000895121613061406551FF2CF4695F1DFBD
:100B600008C0161617061806991FF1CF869571054D
:100B7000610508940895E894BB2766277727CB0181
:100B800097F9089554DF08F48FEF08950BD0C0CF84
:100B9000B1DF28F0B6DF18F0952309F06CCF71CFE4
:100BA0001124EACFC6DFA0F3959FD1F3950F50E053
:100BB000551F629FF001729FBB27F00DB11D639F0F
:100BC000AA27F00DB11DAA1F649F6627B00DA11DB5
:100BD000661F829F2227B00DA11D621F739FB00D5B
:100BE000A11D621F839FA00D611D221F749F3327CB
:100BF000A00D611D231F849F600D211D822F762F64
:100C00006A2F11249F5750408AF0E1F088234AF060
:100C1000EE0FFF1FBB1F661F771F881F91505040AC
:100C2000A9F79E3F510570F026CFA6CF5F3FECF3AA
:100C3000983EDCF3869577956795B795F795E79598
:100C40009F5FC1F7FE2B880F911D9695879597F9A9
:100C5000089511F40EF415CF3EC073DFD0F399233D
:100C6000D9F3CEF39F57550B87FF43D00024A0E65E
:100C700040EA900180585695979528F4805C660F5D
:100C8000771F881F20F026173707480730F4621BAC
:100C9000730B840B202931294A2BA69517940794AE
:100CA000202531254A2758F7660F771F881F20F027
:100CB00026173707480730F4620B730B840B200D9F
:100CC000311D411DA09581F7B901842F9158880FDE
:100CD0009695879508959F3F31F0915020F4879520
:100CE00077956795B795880F911D9695879597F994
:100CF000089591505040660F771F881FD2F70895CE
:100D000097FB092E07260AD077FD04D00CD006D019
:100D100000201AF4709561957F4F0895F6F790952D
:100D200081959F4F0895AA1BBB1B51E107C0AA1FC5
:100D3000BB1FA617B70710F0A61BB70B881F991F7C
:100D40005A95A9F780959095BC01CD010895F89426
:020D5000FFCFD3
:020D52002E0071
:00000001FF
