:100000000C9472000C948F000C94A7200C948F0019
:100010000C948F000C948F000C948F000C948F0024
:100020000C948F000C948F000C948F000C948F0014
:100030000C948F000C948F000C948F000C948F0004
:100040000C948F000C94F8100C942C110C946011EB
:100050000C9494110C948F000C948F000C948F00CE
:100060000C948F000C948F000C948F000C948F00D4
:100070000C948F000C948F000C948F000C948F00C4
:100080000C948F000C948F000C948F000C948F00B4
:100090000C948F000C948F000C948F000C948F00A4
:1000A0000C948F000C948F000C948F000C948F0094
:1000B0000C948F000C948F000C948F000C948F0084
:1000C0000C948F000C948F000C948F000C948F0074
:1000D0000C948F000C948F000C948F000C948F0064
:1000E0000C948F0011241FBECFEFD1E2DEBFCDBF35
:1000F00013E0A0E0B2E0E2E9FDE702C005900D9256
:10010000A430B107D9F71EE0A4E0B3E001C01D920E
:10011000A13BB107E1F70E94732E0C94C73E0C94EB
:100120000000DF93CF93CDB7DEB71092B20D1092DF
:10013000B10D3BC08091B10D9091B20D880F991F08
:10014000880F991FFC01EF5DF14F84E690E09183E9
:1001500080838091B10D9091B20D880F991F880F07
:10016000991FFC01ED5DF14F118210828091B10D5C
:100170009091B20D880F991FFC01EC52F24F118241
:1001800010828091B10D9091B20D880F991FFC01E2
:10019000E05FFC4F118210828091B10D9091B20D01
:1001A00001969093B20D8093B10D8091B10D909115
:1001B000B20D843291050CF4BDCFCF91DF9108953B
:1001C000DF93CF93CDB7DEB728970FB6F894DEBF95
:1001D0000FBECDBF1092B20D1092B10D69C010923A
:1001E0007D0310927C0353C02091B10D3091B20D6C
:1001F00080917C0390917D032817390709F5809140
:10020000B10D9091B20D40917C0350917D03880F08
:10021000991F880F991F9C01220F331F220F331F34
:10022000220F331F820F931F840F951F880F991F72
:10023000FC01EF56FC4F8AE090E0918380831EC062
:100240008091B10D9091B20D40917C0350917D034E
:10025000880F991F880F991F9C01220F331F220FAF
:10026000331F220F331F820F931F840F951F880F98
:10027000991FFC01EF56FC4F1182108280917C0384
:1002800090917D03019690937D0380937C038091F0
:100290007C0390917D03843291050CF4A5CF80916D
:1002A000B10D9091B20D01969093B20D8093B10D66
:1002B0008091B10D9091B20D843291050CF48FCFE5
:1002C0001092B20D1092B10DEEC18091B10D9091CE
:1002D000B20D009779F481E090E098878F831C82BB
:1002E0001B828B819C819E838D8386E090E09A8324
:1002F0008983A4C08091B10D9091B20D8530910594
:1003000079F41E821D828D819E8198878F8386E07D
:1003100090E09A83898381E090E09C838B838EC0F8
:100320008091B10D9091B20D8E31910579F481E0FB
:1003300090E098878F8386E090E09E838D831A8279
:10034000198289819A819C838B8378C08091B10DB9
:100350009091B20D8332910579F41A8219828981C4
:100360009A8198878F8381E090E09C838B8386E0DD
:1003700090E09E838D8362C08091B10D9091B20D0B
:1003800005968B30910578F481E090E09C838B8317
:100390008B819C8198878F8386E090E09A83898304
:1003A0001E821D824BC08091B10D9091B20D26E04E
:1003B00030E0B9010E947D3E009779F41C821B82D7
:1003C00081E090E098878F8386E090E09A8389832C
:1003D00089819A819E838D8331C08091B10D9091E6
:1003E000B20D26E030E0B9010E947D3E85309105D6
:1003F00079F418861F8286E090E09A838983898148
:100400009A819E838D8381E090E09C838B8316C0CC
:100410008091B10D9091B20D4E978630910570F498
:100420001A82198281E090E09C838B838B819C816E
:1004300098878F8386E090E09E838D834091B10DF5
:100440005091B20D2091B10D3091B20D8F819885F0
:10045000B901680F791FCA01880F991F880F991F6A
:100460009C01220F331F220F331F220F331F820FD5
:10047000931F860F971F880F991FFC01EF56FC4FA3
:1004800081E090E0918380834091B10D5091B20D55
:100490002091B10D3091B20D8D819E81B901681B03
:1004A000790BCA01880F991F880F991F9C01220F91
:1004B000331F220F331F220F331F820F931F860F0C
:1004C000971F880F991FFC01EF56FC4F81E090E0C9
:1004D000918380834091B10D5091B20D2091B10D67
:1004E0003091B20D8B819C81B901681B790BCA01D7
:1004F000880F991F880F991F9C01220F331F220F0D
:10050000331F220F331F820F931F860F971F880FF1
:10051000991FFC01EF56FC4F81E090E091838083AE
:100520004091B10D5091B20D2091B10D3091B20DAD
:1005300089819A81B901680F791FCA01880F991FB3
:10054000880F991F9C01220F331F220F331F220F88
:10055000331F820F931F860F971F880F991FFC016F
:10056000EF56FC4F81E090E0918380832091B10DA4
:100570003091B20D8F819885820F931F4091B10DFC
:100580005091B20D880F991F880F991F9C01220F5F
:10059000331F220F331F220F331F820F931F840F2D
:1005A000951F880F991FFC01EF56FC4F81E090E0EA
:1005B000918380832091B10D3091B20D8D819E8108
:1005C000A901481B590BCA014091B10D5091B20DC0
:1005D000880F991F880F991F9C01220F331F220F2C
:1005E000331F220F331F820F931F840F951F880F15
:1005F000991FFC01EF56FC4F81E090E091838083CE
:100600002091B10D3091B20D8B819C81A901481BC5
:10061000590BCA014091B10D5091B20D880F991F2D
:10062000880F991F9C01220F331F220F331F220FA7
:10063000331F820F931F840F951F880F991FFC0192
:10064000EF56FC4F81E090E0918380832091B10DC3
:100650003091B20D89819A81820F931F4091B10D23
:100660005091B20D880F991F880F991F9C01220F7E
:10067000331F220F331F220F331F820F931F840F4C
:10068000951F880F991FFC01EF56FC4F81E090E009
:10069000918380838091B10D9091B20D01969093DA
:1006A000B20D8093B10D8091B10D9091B20D843255
:1006B00091050CF40ACE1092B20D1092B10D49C002
:1006C00010927D0310927C0334C02091B10D3091C3
:1006D000B20D80917C0390917D032817390701F5B5
:1006E0008091B10D9091B20D40917C0350917D03AA
:1006F000880F991F880F991F9C01220F331F220F0B
:10070000331F220F331F820F931F840F951F880FF3
:10071000991FFC01EF56FC4F8AE090E091838083A3
:1007200080917C0390917D03019690937D0380934B
:100730007C0380917C0390917D03843291052CF29F
:100740008091B10D9091B20D01969093B20D80936E
:10075000B10D8091B10D9091B20D843291050CF4E0
:10076000AFCF28960FB6F894DEBF0FBECDBFCF91A6
:10077000DF910895DF93CF93CDB7DEB72A970FB6F9
:10078000F894DEBF0FBECDBF98878F837A876987C5
:100790008F819885880F991F880F991FFC01EF5D45
:1007A000F14F118210828F819885909384038093FA
:1007B00083038FEF9FEF90938E0380938D031092AE
:1007C000B20D1092B10D4FC08091830390918403BC
:1007D0004091B10D5091B20D880F991F880F991F4C
:1007E0009C01220F331F220F331F220F331F820F52
:1007F000931F840F951F880F991FFC01EF56FC4F24
:10080000808191818130910529F58091B10D909180
:10081000B20D880F991FFC01EC52F24F808191813B
:100820000097C1F480918D0390918E03019690936F
:100830008E0380938D0380918D0390918E03209180
:10084000B10D3091B20D880F991FFC01E654F24FA3
:10085000318320838091B10D9091B20D01969093D8
:10086000B20D8093B10D8091B10D9091B20D843293
:1008700091050CF4A9CF1092B20D1092B10D7FC06A
:100880008091B10D9091B20D880F991FFC01E65433
:10089000F24F80819181880F991F880F991FFC0169
:1008A000EF5DF14F2081318180918303909184032A
:1008B000880F991F880F991FFC01EF5DF14F808110
:1008C0009181019682179307ECF58091B10D90917B
:1008D000B20D880F991FFC01E654F24F40815181FF
:1008E0008091830390918403880F991F880F991F2B
:1008F000FC01EF5DF14F808191819C012F5F3F4FA3
:10090000CA01880F991F880F991FFC01EF5DF14FF5
:10091000318320838091B10D9091B20D880F991F82
:10092000FC01E654F24F8081918120918303309144
:100930008403880F991F880F991FFC01ED5DF14F0B
:10094000318320838091B10D9091B20D880F991F52
:10095000FC01E654F24F80819181880F991FFC01C0
:10096000E05FFC4F81E090E0918380838091B10D46
:100970009091B20D01969093B20D8093B10D20919C
:10098000B10D3091B20D80918D0390918E0382173D
:1009900093070CF075CF84E690E09C838B8389EEFF
:1009A0009FEF9A8389831092B20D1092B10D4BC0C4
:1009B0008091B10D9091B20D880F991F880F991FEA
:1009C000FC01EF5DF14F208131818B819C812817E3
:1009D000390784F58091B10D9091B20D880F991F60
:1009E000FC01EC52F24F80819181009719F58091C2
:1009F000B10D9091B20D880F991FFC01E05FFC4F83
:100A00008081918181309105A9F48091B10D9091FF
:100A1000B20D880F991F880F991FFC01EF5DF14FF0
:100A2000808191819C838B838091B10D9091B20DD7
:100A30009A8389838091B10D9091B20D0196909324
:100A4000B20D8093B10D8091B10D9091B20D8432B1
:100A500091050CF4ADCF8091830390918403880FAE
:100A6000991FFC01EC52F24F81E090E0918380836A
:100A700089819A81909384038093830389EE9FEF09
:100A80009A8389831092B20D1092B10D1AC0809191
:100A9000B10D9091B20D880F991FFC01EC52F24FED
:100AA00080819181009721F482E090E09A8389838C
:100AB0008091B10D9091B20D01969093B20D8093FB
:100AC000B10D8091B10D9091B20D84329105FCF27F
:100AD00089819A812FEF893E920709F06ACE898534
:100AE0009A859E838D838FEF9FEF90938E038093E3
:100AF0008D0380918D0390918E03019690938E03C8
:100B000080938D0380918D0390918E03880F991FA0
:100B1000FC01E05FFC4F8D819E81918380838D81FC
:100B20009E81880F991F880F991FFC01ED5DF14F81
:100B3000808191819E838D832D813E818F819885D7
:100B400028173907B1F680918D0390918E03019695
:100B500090938E0380938D0380918D0390918E03EB
:100B6000880F991FFC01E05FFC4F8D819E8191836E
:100B700080832A960FB6F894DEBF0FBECDBFCF910B
:100B8000DF910895DF93CF93CDB7DEB7E0E3F0E0D8
:100B90001082E1E3F0E01082CF91DF910895DF93BE
:100BA000CF93CDB7DEB7EAE7F0E01082EBE7F0E0F5
:100BB0001082ECE7F0E080E28083E0E5F0E080E89E
:100BC0008083EAE7F0E086E88083CF91DF910895A3
:100BD000DF93CF9300D0CDB7DEB78A838A81877049
:100BE0008A83ECE7F0E08A8180628083AAE7B0E044
:100BF000EAE7F0E0808180648C93EAE7F0E08081AE
:100C0000882F90E0807190700097B9F3E9E7F0E0E9
:100C100080818983AAE7B0E0EAE7F0E08081806123
:100C20008C93EBE7F0E0108289810F900F90CF91C9
:100C3000DF910895DF93CF930F92CDB7DEB789830D
:100C400089810E94E80580938F0380918F03882F0C
:100C500090E00F90CF91DF910895DF93CF93CDB7C0
:100C6000DEB7F8940E94C2050E94CF057894CF9118
:100C7000DF910895DF93CF93CDB7DEB7A7E2B0E061
:100C8000E7E2F0E08081876F8C93A8E2B0E0E8E2D1
:100C9000F0E0808180788C93CF91DF9108950F935D
:100CA0001F93DF93CF93CDB7DEB7C057D0400FB6B9
:100CB000F894DEBF0FBECDBFFE01E359FF4F80E0C9
:100CC00090E0A0E8BFE380839183A283B3838E0189
:100CD00007591F4FFE01E359FF4F608171818281E7
:100CE000938126E636E646E655E40E94E53ADC01C5
:100CF000CB01F80180839183A283B383FE01E7597E
:100D0000FF4F608171818281938120E030E040E873
:100D10005FE30E943F3C882344F4FE01E959FF4F02
:100D200081E090E09183808364C0FE01E759FF4F2A
:100D3000608171818281938120E03FEF4FE757E42A
:100D40000E94DF3B18160CF043C0FE01E359FF4F31
:100D5000608171818281938120E030E040E251E442
:100D60000E94E53ADC01CB018E0109591F4FBC01FD
:100D7000CD010E940F39DC01CB01F8019183808302
:100D80001FC0FE01EB59FF4F80E791E09183808304
:100D9000FE01EB59FF4F808191810197F1F7FE0130
:100DA000EB59FF4F91838083DE01A959BF4FFE01AC
:100DB000E959FF4F80819181019711969C938E9301
:100DC000FE01E959FF4F808191810097D1F627C03C
:100DD0008E0109591F4FFE01E759FF4F6081718154
:100DE000828193810E940F39DC01CB01F80191834C
:100DF0008083DE01AD59BF4FFE01E959FF4F80816D
:100E000091818D939C93FE01ED59FF4F80819181DB
:100E10000197F1F7FE01ED59FF4F91838083A8E21E
:100E2000B0E0E8E2F0E080818E7F8C93A8E2B0E051
:100E3000E8E2F0E080818D7F8C93E8E2F0E080E3EF
:100E40008083A8E2B0E0E8E2F0E0808184608C93E7
:100E5000FE01E15AFF4F80E090E0A0EAB0E4808319
:100E60009183A283B3838E01055A1F4FFE01E15A7D
:100E7000FF4F608171818281938126E636E646E6E6
:100E800055E40E94E53ADC01CB01F80180839183AF
:100E9000A283B383FE01E55AFF4F60817181828195
:100EA000938120E030E040E85FE30E943F3C8823EC
:100EB00044F4FE01E75AFF4F81E090E09183808384
:100EC00064C0FE01E55AFF4F608171818281938188
:100ED00020E03FEF4FE757E40E94DF3B18160CF08D
:100EE00043C0FE01E15AFF4F60817181828193818D
:100EF00020E030E040E251E40E94E53ADC01CB0121
:100F00008E01075A1F4FBC01CD010E940F39DC0131
:100F1000CB01F801918380831FC0FE01E95AFF4F86
:100F200080E791E091838083FE01E95AFF4F808141
:100F300091810197F1F7FE01E95AFF4F9183808378
:100F4000DE01A75ABF4FFE01E75AFF4F8081918112
:100F5000019711969C938E93FE01E75AFF4F808173
:100F600091810097D1F627C08E01075A1F4FFE01CD
:100F7000E55AFF4F60817181828193810E940F3910
:100F8000DC01CB01F80191838083DE01AB5ABF4FB6
:100F9000FE01E75AFF4F808191818D939C93FE0162
:100FA000EB5AFF4F808191810197F1F7FE01EB5AD7
:100FB000FF4F91838083A8E2B0E0E8E2F0E0808117
:100FC0008B7F8C93FE01EF5AFF4F80E090E0A0E80A
:100FD000BFE380839183A283B3838E01035B1F4FA2
:100FE000FE01EF5AFF4F608171818281938126E675
:100FF00036E646E655E40E94E53ADC01CB01F8010D
:1010000080839183A283B383FE01E35BFF4F608102
:1010100071818281938120E030E040E85FE30E94AB
:101020003F3C882344F4FE01E55BFF4F81E090E004
:101030009183808364C0FE01E35BFF4F6081718117
:101040008281938120E03FEF4FE757E40E94DF3B2E
:1010500018160CF043C0FE01EF5AFF4F60817181FA
:101060008281938120E030E040E251E40E94E53A41
:10107000DC01CB018E01055B1F4FBC01CD010E943D
:101080000F39DC01CB01F801918380831FC0FE0181
:10109000E75BFF4F80E791E091838083FE01E75B90
:1010A000FF4F808191810197F1F7FE01E75BFF4FD0
:1010B00091838083DE01A55BBF4FFE01E55BFF4F9F
:1010C00080819181019711969C938E93FE01E55B3F
:1010D000FF4F808191810097D1F627C08E01055B7B
:1010E0001F4FFE01E35BFF4F60817181828193811D
:1010F0000E940F39DC01CB01F80191838083DE016E
:10110000A95BBF4FFE01E55BFF4F808191818D930D
:101110009C93FE01E95BFF4F808191810197F1F77C
:10112000FE01E95BFF4F91838083A8E2B0E0E8E233
:10113000F0E080818E7F8C93A8E2B0E0E8E2F0E0FE
:1011400080818D7F8C93E8E2F0E080E38083A8E2E9
:10115000B0E0E8E2F0E0808184608C93FE01ED5B1A
:10116000FF4F80E090E0A0EAB0E480839183A28307
:10117000B3838E01015C1F4FFE01ED5BFF4F608169
:1011800071818281938126E636E646E655E40E9427
:10119000E53ADC01CB01F80180839183A283B3831C
:1011A000FE01FF96608171818281938120E030E0B1
:1011B00040E85FE30E943F3C88232CF481E090E00C
:1011C0009EAF8DAF46C0FE01FF9660817181828126
:1011D000938120E03FEF4FE757E40E94DF3B181672
:1011E00064F5FE01ED5BFF4F608171818281938127
:1011F00020E030E040E251E40E94E53ADC01CB011E
:10120000BC01CD010E940F39DC01CB019EAF8DAF37
:101210000FC080E791E09CAF8BAF8BAD9CAD019789
:10122000F1F79CAF8BAF8DAD9EAD01979EAF8DAFAB
:101230008DAD9EAD009769F716C0FE01FF966081E7
:101240007181828193810E940F39DC01CB019EAFB5
:101250008DAF8DAD9EAD9AAF89AF89AD9AAD019737
:10126000F1F79AAF89AFA8E2B0E0E8E2F0E0808160
:101270008B7F8C9380E090E0A0E8BFE38DAB9EABCA
:10128000AFABB8AF6DA97EA98FA998AD26E636E6BB
:1012900046E655E40E94E53ADC01CB0189AB9AAB06
:1012A000ABABBCAB69A97AA98BA99CA920E030E0C3
:1012B00040E85FE30E943F3C88232CF481E090E00B
:1012C00098AB8FA73FC069A97AA98BA99CA920E0F8
:1012D0003FEF4FE757E40E94DF3B18164CF56DA92E
:1012E0007EA98FA998AD20E030E040E251E40E9451
:1012F000E53ADC01CB01BC01CD010E940F39DC01D4
:10130000CB0198AB8FA70FC080E791E09EA78DA778
:101310008DA59EA50197F1F79EA78DA78FA598A9EA
:10132000019798AB8FA78FA598A9009769F714C06C
:1013300069A97AA98BA99CA90E940F39DC01CB016C
:1013400098AB8FA78FA598A99CA78BA78BA59CA5C9
:101350000197F1F79CA78BA7A8E2B0E0E8E2F0E0E4
:1013600080818E7F8C93A8E2B0E0E8E2F0E080819B
:101370008D7F8C93E8E2F0E080E38083A8E2B0E028
:10138000E8E2F0E0808184608C9380E090E0A0EA65
:10139000B0E48FA398A7A9A7BAA76FA178A589A53C
:1013A0009AA526E636E646E655E40E94E53ADC01D3
:1013B000CB018BA39CA3ADA3BEA36BA17CA18DA1EC
:1013C0009EA120E030E040E85FE30E943F3C88239C
:1013D0002CF481E090E09AA389A33FC06BA17CA18B
:1013E0008DA19EA120E03FEF4FE757E40E94DF3B35
:1013F00018164CF56FA178A589A59AA520E030E0D4
:1014000040E251E40E94E53ADC01CB01BC01CD0190
:101410000E940F39DC01CB019AA389A30FC080E79A
:1014200091E098A38F8F8F8D98A10197F1F798A3E2
:101430008F8F89A19AA101979AA389A389A19AA1C3
:10144000009769F714C06BA17CA18DA19EA10E9499
:101450000F39DC01CB019AA389A389A19AA19E8FA0
:101460008D8F8D8D9E8D0197F1F79E8F8D8FA8E2C8
:10147000B0E0E8E2F0E080818B7F8C9380E090E048
:10148000A0E8BFE3898F9A8FAB8FBC8F698D7A8D6F
:101490008B8D9C8D26E636E646E655E40E94E53ABD
:1014A000DC01CB018D8B9E8BAF8BB88F6D897E89D4
:1014B0008F89988D20E030E040E85FE30E943F3C58
:1014C00088232CF481E090E09C8B8B8B3FC06D894E
:1014D0007E898F89988D20E03FEF4FE757E40E9487
:1014E000DF3B18164CF5698D7A8D8B8D9C8D20E035
:1014F00030E040E251E40E94E53ADC01CB01BC015E
:10150000CD010E940F39DC01CB019C8B8B8B0FC06E
:1015100080E791E09A8B898B89899A890197F1F705
:101520009A8B898B8B899C8901979C8B8B8B8B8960
:101530009C89009769F714C06D897E898F89988D81
:101540000E940F39DC01CB019C8B8B8B8B899C8992
:10155000988B8F878F8598890197F1F7988B8F8764
:10156000A8E2B0E0E8E2F0E080818E7F8C93A8E210
:10157000B0E0E8E2F0E080818D7F8C93E8E2F0E07B
:1015800080E28083A8E2B0E0E8E2F0E0808184605D
:101590008C9380E090E0A0EAB0E48B879C87AD87D5
:1015A000BE876B857C858D859E8526E636E646E67C
:1015B00055E40E94E53ADC01CB018F839887A98727
:1015C000BA876F81788589859A8520E030E040E888
:1015D0005FE30E943F3C88232CF481E090E09E83EF
:1015E0008D833FC06F81788589859A8520E03FEFA4
:1015F0004FE757E40E94DF3B18164CF56B857C855E
:101600008D859E8520E030E040E251E40E94E53A7D
:10161000DC01CB01BC01CD010E940F39DC01CB0103
:101620009E838D830FC080E791E09C838B838B81A9
:101630009C810197F1F79C838B838D819E8101971B
:101640009E838D838D819E81009769F714C06F8181
:10165000788589859A850E940F39DC01CB019E83AC
:101660008D838D819E819A83898389819A81019757
:10167000F1F79A838983A8E2B0E0E8E2F0E08081A4
:101680008B7F8C93C059DF4F0FB6F894DEBF0FBE2F
:10169000CDBFCF91DF911F910F910895DF93CF932D
:1016A000CDB7DEB72E970FB6F894DEBF0FBECDBF15
:1016B00080E090E0A0E8BFE38B879C87AD87BE8782
:1016C0006B857C858D859E8526E636E646E655E467
:1016D0000E94E53ADC01CB018F839887A987BA87FE
:1016E0006F81788589859A8520E030E040E85FE366
:1016F0000E943F3C88232CF481E090E09E838D8300
:101700003FC06F81788589859A8520E03FEF4FE75C
:1017100057E40E94DF3B18164CF56B857C858D8560
:101720009E8520E030E040E251E40E94E53ADC0191
:10173000CB01BC01CD010E940F39DC01CB019E839E
:101740008D830FC080E791E09C838B838B819C818C
:101750000197F1F79C838B838D819E8101979E83F6
:101760008D838D819E81009769F714C06F81788584
:1017700089859A850E940F39DC01CB019E838D8378
:101780008D819E819A83898389819A810197F1F75E
:101790009A83898388E20E94E20B81E00E94E20B37
:1017A00086E00E94E20B8EE00E94E20B80E80E943D
:1017B000E20B2E960FB6F894DEBF0FBECDBFCF91D1
:1017C000DF910895DF93CF93CDB7DEB76E970FB655
:1017D000F894DEBF0FBECDBF8E8F8E8D8D8F8D8D19
:1017E000807F8D8FA8E2B0E0E8E2F0E080818F702A
:1017F0008C93A8E2B0E0E8E2F0E090818D8D892B37
:101800008C93A8E2B0E0E8E2F0E080818E7F8C93D8
:10181000A8E2B0E0E8E2F0E080818D7F8C93A8E25E
:10182000B0E0E8E2F0E0808184608C9380E090E0BA
:10183000A0EAB0E4898F9A8FAB8FBC8F698D7A8DC7
:101840008B8D9C8D26E636E646E655E40E94E53A09
:10185000DC01CB018D8B9E8BAF8BB88F6D897E8920
:101860008F89988D20E030E040E85FE30E943F3CA4
:1018700088232CF481E090E09C8B8B8B3FC06D899A
:101880007E898F89988D20E03FEF4FE757E40E94D3
:10189000DF3B18164CF5698D7A8D8B8D9C8D20E081
:1018A00030E040E251E40E94E53ADC01CB01BC01AA
:1018B000CD010E940F39DC01CB019C8B8B8B0FC0BB
:1018C00080E791E09A8B898B89899A890197F1F752
:1018D0009A8B898B8B899C8901979C8B8B8B8B89AD
:1018E0009C89009769F714C06D897E898F89988DCE
:1018F0000E940F39DC01CB019C8B8B8B8B899C89DF
:10190000988B8F878F8598890197F1F7988B8F87B0
:10191000A8E2B0E0E8E2F0E080818B7F8C938E8DCE
:101920008F708E8F8E8D8295807F8E8FA8E2B0E033
:10193000E8E2F0E080818F708C93A8E2B0E0E8E20A
:10194000F0E090818E8D892B8C93A8E2B0E0E8E2E4
:10195000F0E080818E7F8C93A8E2B0E0E8E2F0E0D6
:1019600080818D7F8C93A8E2B0E0E8E2F0E0808196
:1019700084608C9380E090E0A0EAB0E48B879C8741
:10198000AD87BE876B857C858D859E8526E636E690
:1019900046E655E40E94E53ADC01CB018F83988747
:1019A000A987BA876F81788589859A8520E030E09C
:1019B00040E85FE30E943F3C88232CF481E090E004
:1019C0009E838D833FC06F81788589859A8520E0CD
:1019D0003FEF4FE757E40E94DF3B18164CF56B854D
:1019E0007C858D859E8520E030E040E251E40E94B8
:1019F000E53ADC01CB01BC01CD010E940F39DC01CD
:101A0000CB019E838D830FC080E791E09C838B8305
:101A10008B819C810197F1F79C838B838D819E81C3
:101A200001979E838D838D819E81009769F714C0F5
:101A30006F81788589859A850E940F39DC01CB01F9
:101A40009E838D838D819E819A83898389819A81EA
:101A50000197F1F79A838983A8E2B0E0E8E2F0E029
:101A600080818B7F8C936E960FB6F894DEBF0FBE8D
:101A7000CDBFCF91DF910895DF93CF93CDB7DEB780
:101A80006E970FB6F894DEBF0FBECDBF8E8F8E8DD2
:101A90008D8F8D8D807F8D8FA8E2B0E0E8E2F0E041
:101AA00080818F708C93A8E2B0E0E8E2F0E0908152
:101AB0008D8D892B8C93A8E2B0E0E8E2F0E0808184
:101AC00081608C93A8E2B0E0E8E2F0E080818D7F55
:101AD0008C93A8E2B0E0E8E2F0E0808184608C932F
:101AE00080E090E0A0EAB0E4898F9A8FAB8FBC8F42
:101AF000698D7A8D8B8D9C8D26E636E646E655E41B
:101B00000E94E53ADC01CB018D8B9E8BAF8BB88FA9
:101B10006D897E898F89988D20E030E040E85FE311
:101B20000E943F3C88232CF481E090E09C8B8B8BBF
:101B30003FC06D897E898F89988D20E03FEF4FE708
:101B400057E40E94DF3B18164CF5698D7A8D8B8D1A
:101B50009C8D20E030E040E251E40E94E53ADC0157
:101B6000CB01BC01CD010E940F39DC01CB019C8B64
:101B70008B8B0FC080E791E09A8B898B89899A893A
:101B80000197F1F79A8B898B8B899C8901979C8BA4
:101B90008B8B8B899C89009769F714C06D897E892E
:101BA0008F89988D0E940F39DC01CB019C8B8B8B28
:101BB0008B899C89988B8F878F8598890197F1F7FE
:101BC000988B8F87A8E2B0E0E8E2F0E080818B7F1D
:101BD0008C938E8D8F708E8F8E8D8295807F8E8F61
:101BE000A8E2B0E0E8E2F0E080818F708C93A8E298
:101BF000B0E0E8E2F0E090818E8D892B8C93A8E232
:101C0000B0E0E8E2F0E0808181608C93A8E2B0E08F
:101C1000E8E2F0E080818D7F8C93A8E2B0E0E8E21A
:101C2000F0E0808184608C9380E090E0A0EAB0E4F2
:101C30008B879C87AD87BE876B857C858D859E85D0
:101C400026E636E646E655E40E94E53ADC01CB019D
:101C50008F839887A987BA876F81788589859A85C8
:101C600020E030E040E85FE30E943F3C88232CF412
:101C700081E090E09E838D833FC06F817885898568
:101C80009A8520E03FEF4FE757E40E94DF3B1816AC
:101C90004CF56B857C858D859E8520E030E040E2AB
:101CA00051E40E94E53ADC01CB01BC01CD010E9468
:101CB0000F39DC01CB019E838D830FC080E791E05B
:101CC0009C838B838B819C810197F1F79C838B8311
:101CD0008D819E8101979E838D838D819E8100974A
:101CE00069F714C06F81788589859A850E940F39BC
:101CF000DC01CB019E838D838D819E819A838983B4
:101D000089819A810197F1F79A838983A8E2B0E0EB
:101D1000E8E2F0E080818B7F8C936E960FB6F894AA
:101D2000DEBF0FBECDBFCF91DF910895DF93CF937C
:101D3000CDB7DEB780E80E94E20BCF91DF91089526
:101D4000DF93CF9300D0CDB7DEB79A8389830AC0E3
:101D5000E981FA8180810E943C0D89819A810196F6
:101D60009A838983E981FA818081882389F70F909A
:101D70000F90CF91DF910895DF93CF9300D000D0E3
:101D8000CDB7DEB789836A838981282F30E03C8311
:101D90002B838B819C8182309105D9F02B813C81F2
:101DA0002330310534F48B819C818130910561F0C1
:101DB0001EC02B813C812330310581F08B819C81B9
:101DC0008430910581F013C08A8181580E94E20B12
:101DD0000EC08A8181540E94E20B09C08A818D560F
:101DE0000E94E20B04C08A818D520E94E20B0F9088
:101DF0000F900F900F90CF91DF910895DF93CF93C5
:101E0000CDB7DEB727970FB6F894DEBF0FBECDBFB4
:101E10008A836B835D834C833F832E8319828A81FF
:101E2000882319F08B81882319F40E94960E04C030
:101E30008A816B810E94BC0E8E819F8185309105C5
:101E400019F089818130A9F48C819D8120E137E2EC
:101E5000B9010E94693ECB01C096909380038093A4
:101E60007F0380917F03909180030E943C0D81E06D
:101E700089838E819F818430910519F08981813019
:101E800011F58C819D8128EE33E0B9010E94693EF5
:101E9000CB01909386038093850380918503909175
:101EA00086032AE030E0B9010E94693EC096909313
:101EB000200E80931F0E80911F0E9091200E0E9485
:101EC0003C0D81E089838E819F818330910519F0DB
:101ED0008981813011F58C819D8124E630E0B90142
:101EE0000E94693ECB019093860380938503809185
:101EF0008503909186032AE030E0B9010E94693E93
:101F0000C0969093D10D8093D00D8091D00D90917B
:101F1000D10D0E943C0D81E089838E819F818230AA
:101F2000910519F08981813011F58C819D812AE01C
:101F300030E0B9010E94693ECB0190938603809303
:101F4000850380918503909186032AE030E0B901F2
:101F50000E94693EC0969093B70D8093B60D809114
:101F6000B60D9091B70D0E943C0D81E089838E8162
:101F70009F818130910519F08981813091F48C81A4
:101F80009D812AE030E0B9010E94693EC09690939D
:101F90001E0E80931D0E80911D0E90911E0E0E94AC
:101FA0003C0D8E819F81863091051CF085E40E9456
:101FB0003C0D27960FB6F894DEBF0FBECDBFCF9174
:101FC000DF910895DF93CF93CDB7DEB781E061E075
:101FD0000E94BC0E81E192E00E94A00E82E061E0CE
:101FE0000E94BC0E81E192E00E94A00E81E061E0BF
:101FF0000E94BC0ECF91DF910895DF93CF93CDB7B0
:10200000DEB7F8940E943A067894CF91DF91089554
:10201000DF93CF93CDB7DEB7E4E0F1E08EEF8083BE
:10202000E5E0F1E01082CF91DF910895DF93CF9347
:10203000CDB7DEB7A5E0B1E0E5E0F1E080818D7FCE
:102040008C93CF91DF910895DF93CF93CDB7DEB717
:10205000A5E0B1E0E5E0F1E0808182608C93CF9172
:10206000DF910895DF93CF93CDB7DEB7A5E0B1E060
:10207000E5E0F1E080818B7F8C93CF91DF91089533
:10208000DF93CF93CDB7DEB7A5E0B1E0E5E0F1E0B7
:10209000808184608C93CF91DF910895DF93CF93FB
:1020A000CDB7DEB7A5E0B1E0E5E0F1E08081877F64
:1020B0008C93CF91DF910895DF93CF93CDB7DEB7A7
:1020C000A5E0B1E0E5E0F1E0808188608C93CF91FC
:1020D000DF910895DF93CF93CDB7DEB7A5E0B1E0F0
:1020E000E5E0F1E080818F7E8C93CF91DF910895C0
:1020F000DF93CF93CDB7DEB7A5E0B1E0E5E0F1E047
:10210000808180618C93CF91DF910895DF93CF938D
:10211000CDB7DEB7A5E0B1E0E5E0F1E080818F7DED
:102120008C93CF91DF910895DF93CF93CDB7DEB736
:10213000A5E0B1E0E5E0F1E0808180628C93CF9191
:10214000DF910895DF93CF93CDB7DEB7A5E0B1E07F
:10215000E5E0F1E080818F7B8C93CF91DF91089552
:10216000DF93CF93CDB7DEB7A5E0B1E0E5E0F1E0D6
:10217000808180648C93CF91DF910895DF93CF931A
:10218000CDB7DEB7E1E8F0E01082E5E8F0E080E707
:102190008083E4E8F0E081E08083E9E8F0E08FE824
:1021A0008083E8E8F0E08FEF8083EBE8F0E08FE8F1
:1021B0008083EAE8F0E08FEF8083EDE8F0E01082C2
:1021C000ECE8F0E01082E7E8F0E08FE88083E6E8F2
:1021D000F0E08FEF8083E0E8F0E01082E2E8F0E0EA
:1021E0001082E1E8F0E081E08083CF91DF910895F3
:1021F0001F920F920FB60F9211242F933F934F937C
:102200005F936F937F938F939F93AF93BF93EF935E
:10221000FF93DF93CF93CDB7DEB78091040388237C
:1022200011F40E94161080910403813011F40E9471
:102230003210CF91DF91FF91EF91BF91AF919F91BC
:102240008F917F916F915F914F913F912F910F905F
:102250000FBE0F901F9018951F920F920FB60F92FE
:1022600011242F933F934F935F936F937F938F939B
:102270009F93AF93BF93EF93FF93DF93CF93CDB72C
:10228000DEB780910403882311F40E944E108091E0
:102290000403813011F40E946A10CF91DF91FF9105
:1022A000EF91BF91AF919F918F917F916F915F91CE
:1022B0004F913F912F910F900FBE0F901F90189547
:1022C0001F920F920FB60F9211242F933F934F93AB
:1022D0005F936F937F938F939F93AF93BF93EF938E
:1022E000FF93DF93CF93CDB7DEB7809104038823AC
:1022F00011F40E94861080910403813011F40E9431
:10230000A210CF91DF91FF91EF91BF91AF919F917B
:102310008F917F916F915F914F913F912F910F908E
:102320000FBE0F901F9018951F920F920FB60F922D
:1023300011242F933F934F935F936F937F938F93CA
:102340009F93AF93BF93EF93FF93DF93CF93CDB75B
:10235000DEB7E5E8F0E080E78083E4E8F0E081E0E4
:102360008083809104038F5F809304038091040332
:10237000883010F01092040380910403882321F523
:102380000E9424100E945C100E949410E9E8F0E082
:102390008091D20D8083E8E8F0E08091B90D8083D0
:1023A000EBE8F0E080917E038083EAE8F0E0809142
:1023B0008C038083EDE8F0E08091B30D8083ECE83E
:1023C000F0E080919003808380910403813021F5B7
:1023D0000E9440100E9478100E94B010E9E8F0E0DE
:1023E000809187038083E8E8F0E08091D30D8083BB
:1023F000EBE8F0E08091B40D8083EAE8F0E08091B2
:10240000B50D8083EDE8F0E08091B80D8083ECE8B5
:10241000F0E080911C0E8083CF91DF91FF91EF91CE
:10242000BF91AF919F918F917F916F915F914F91EC
:102430003F912F910F900FBE0F901F901895DF9333
:10244000CF9300D000D0CDB7DEB71C821B821A829A
:10245000198280910703853B18F084EB8093070372
:1024600080910703282F30E0C901880F991F880F3A
:10247000991F880F991F820F931F9C01220F331FF2
:10248000220F331F220F331F820F931F875696454B
:102490009C838B838B81809306038B819C81892F06
:1024A00099279A8389838981809305030F900F90E0
:1024B0000F900F90CF91DF910895DF93CF930F92FC
:1024C000CDB7DEB789838981809307030E941F12ED
:1024D000809105038093D20D809106038093B90DFE
:1024E0000F90CF91DF910895DF93CF930F92CDB7E7
:1024F000DEB789838981809307030E941F12809130
:10250000050380938703809106038093D30D0F907A
:10251000CF91DF910895DF93CF930F92CDB7DEB7C0
:1025200089838981809307030E941F12809105038C
:1025300080937E038091060380938C030F90CF914C
:10254000DF910895DF93CF930F92CDB7DEB78983E4
:102550008981809307030E941F1280910503809355
:10256000B40D809106038093B50D0F90CF91DF914C
:102570000895DF93CF930F92CDB7DEB7898389811A
:10258000809307030E941F12809105038093B30D6F
:1025900080910603809390030F90CF91DF9108956F
:1025A000DF93CF930F92CDB7DEB789838981809374
:1025B00007030E941F12809105038093B80D80913C
:1025C000060380931C0E0F90CF91DF910895DF9347
:1025D000CF93CDB7DEB7F8940E9408100E94BE10CA
:1025E000EFE6F0E08FE080837894CF91DF9108955B
:1025F000DF93CF93CDB7DEB784EA0E945D1284EA01
:102600000E947412CF91DF910895DF93CF93CDB7DD
:10261000DEB788E70E945D1288E70E947412CF91AE
:10262000DF910895DF93CF93CDB7DEB780E00E94AE
:102630008B1284EB0E94A212CF91DF910895DF9359
:10264000CF93CDB7DEB78CE80E948B128EE10E944B
:10265000B9128EE10E94A212CF91DF910895DF930B
:10266000CF93CDB7DEB7A1E2B0E0E1E2F0E0808148
:102670008F608C93A2E2B0E0E2E2F0E08081807FA4
:102680008C93AAE0B1E0EAE0F1E0808188618C936C
:10269000ABE0B1E0EBE0F1E0808188618C93CF9119
:1026A000DF910895DF93CF93CDB7DEB7E1E2F1E09C
:1026B0001082E5E2F1E08FEF8083E4E2F1E081E077
:1026C0008083E9E2F1E01082E8E2F1E08FEF8083BD
:1026D000EBE2F1E01082EAE2F1E08FEF8083EDE2DD
:1026E000F1E01082ECE2F1E08FEF8083E7E2F1E0CD
:1026F0001082E6E2F1E08FEF8083E0E2F1E089EA28
:102700008083E2E2F1E01082E1E2F1E08DE080839B
:10271000CF91DF910895DF93CF930F92CDB7DEB7BE
:102720008983E9E2F1E01082E8E2F1E089818083C7
:10273000EBE2F1E01082EAE2F1E0898180830F9020
:10274000CF91DF910895DF93CF9300D0CDB7DEB75F
:102750008A8319828A818F708A83E2E2F0E0808125
:1027600089838981807F898399818A81892B898363
:10277000E2E2F0E0898180830F900F90CF91DF91AA
:102780000895DF93CF93CDB7DEB786E00E94A31301
:10279000CF91DF910895DF93CF93CDB7DEB789E076
:1027A0000E94A313CF91DF910895DF93CF93CDB70C
:1027B000DEB785E00E94A313CF91DF910895DF93E8
:1027C000CF93CDB7DEB78AE00E94A313CF91DF91FC
:1027D0000895DF93CF93CDB7DEB787E00E94A313B0
:1027E000CF91DF910895DF93CF93CDB7DEB78EE021
:1027F0000E94A313CF91DF910895DF93CF93CDB7BC
:10280000DEB78DE00E94A313CF91DF910895DF938F
:10281000CF93CDB7DEB78BE00E94A313CF91DF91AA
:102820000895DF93CF93CDB7DEB78FE00E94A31357
:10283000CF91DF910895DF93CF93CDB7DEB7F894B2
:102840000E942F130E9452137894CF91DF91089524
:10285000DF93CF93CDB7DEB7E7E0F1E01082E1E0A0
:10286000F1E01082E8E0F1E01082E2E0F1E08FEFC9
:102870008083CF91DF910895DF93CF93CDB7DEB7FB
:1028800028970FB6F894DEBF0FBECDBF98878F8311
:1028900078941E821D821C821B828F8198858130D4
:1028A000910509F09AC01A821982E6E0F1E0808170
:1028B000882F90E081709070882329F089819A8117
:1028C00001969A838983E6E0F1E08081882F90E089
:1028D00082709070009729F089819A8101969A837D
:1028E0008983E6E0F1E08081882F90E08470907029
:1028F000009729F089819A8101969A838983E2E37E
:10290000F0E08081882F90E082709070009729F02D
:1029100089819A8101969A838983E2E3F0E080813C
:10292000882F90E081709070882329F089819A81A6
:1029300001969A838983E6E0F1E0808188232CF474
:1029400089819A8101969A838983E6E0F1E080810A
:10295000882F90E080749070009729F089819A8187
:1029600001969A838983E6E0F1E08081882F90E0E8
:1029700080729070009729F089819A8101969A83DC
:102980008983E6E0F1E08081882F90E0807190708B
:10299000009729F089819A8101969A838983E6E0DC
:1029A000F1E08081882F90E088709070009729F086
:1029B00089819A8101969A83898389819A81873056
:1029C00091055CF080910E0390910F038531910584
:1029D00024F00E9411140C943A208F819885833042
:1029E000910511F5E2E3F0E08081882F90E081709D
:1029F0009070882359F080910E0390910F038B31D2
:102A0000910524F087E190E09C838B838B819C81EE
:102A10008731910549F4E6E0F1E08081882324F4D0
:102A20000E9411140C943A208F819885843091056E
:102A300031F5E2E3F0E08081882F90E082709070C1
:102A4000009759F080910E0390910F038B319105FF
:102A500024F087E190E09C838B838B819C8187317C
:102A6000910569F4E6E0F1E08081882F90E08170C3
:102A70009070882321F00E9411140C943A208F81C9
:102A80009885863091056CF020910E0330910F03EC
:102A90008F8198858217930724F40E9411140C9457
:102AA0003A208F8198852FEF8F3F920769F4E0E0FD
:102AB000F1E08081882F90E080749070009721F081
:102AC0000E9411140C943A20E6E0F1E080818831F4
:102AD000A9F4E2E3F0E08081882F90E083709070A9
:102AE000009761F481E090E09E838D838091810363
:102AF000909182030E948B130E94C113E6E0F1E0E3
:102B000080818C30A9F4E2E3F0E08081882F90E0AE
:102B100083709070009761F481E090E09E838D83D4
:102B20008091CE0D9091CF0D0E948B130E94F313D4
:102B3000E6E0F1E080818033A9F4E2E3F0E0808117
:102B4000882F90E083709070009761F481E090E0AE
:102B50009E838D838091CE0D9091CF0D0E948B131B
:102B60000E94E913E6E0F1E080818830A9F4E2E315
:102B7000F0E08081882F90E083709070009761F47E
:102B800081E090E09E838D8380918A0390918B03F6
:102B90000E948B130E94F313E6E0F1E08081803104
:102BA000A9F4E2E3F0E08081882F90E083709070D8
:102BB000009761F481E090E09E838D8380918A0389
:102BC00090918B030E948B130E94E913E6E0F1E0E1
:102BD00080818037A9F4E2E3F0E08081882F90E0E3
:102BE00083709070009761F481E090E09E838D8304
:102BF0008091CE0D9091CF0D0E948B130E94E9130E
:102C0000E6E0F1E080818E30A9F4E2E3F0E080813B
:102C1000882F90E083709070009761F481E090E0DD
:102C20009E838D838091CE0D9091CF0D0E948B134A
:102C30000E94F313E6E0F1E080818C36E9F4E2E3F0
:102C4000F0E08081882F90E0837090700097A1F46D
:102C500081E090E09E838D8380918A0390918B0325
:102C60000E948B138F8198858430910519F40E94FE
:102C7000E91302C00E94F313E6E0F1E080818C3C8E
:102C8000E9F4E2E3F0E08081882F90E083709070B7
:102C90000097A1F481E090E09E838D8380918A0368
:102CA00090918B030E948B138F81988584309105BE
:102CB00019F40E94E91302C00E94F313E6E0F1E068
:102CC00080818C34E9F4E2E3F0E08081882F90E0A9
:102CD000837090700097A1F481E090E09E838D83D3
:102CE00080918A0390918B030E948B138F8198852A
:102CF0008430910519F40E94E91302C00E94F31375
:102D0000E6E0F1E080818C38E9F4E2E3F0E08081F4
:102D1000882F90E0837090700097A1F481E090E09C
:102D20009E838D8380918A0390918B030E948B13E5
:102D30008F8198858430910519F40E94E91302C0AF
:102D40000E94F313E6E0F1E080818C38F1F4E2E3D5
:102D5000F0E08081882F90E0837090708230910540
:102D6000A1F481E090E09E838D8380918A0390910D
:102D70008B030E948B138F8198858430910519F401
:102D80000E94E91302C00E94F313E6E0F1E08081A3
:102D90008C3CF1F4E2E3F0E08081882F90E08370D6
:102DA000907082309105A1F481E090E09E838D8344
:102DB00080918A0390918B030E948B138F81988559
:102DC0008430910519F40E94E91302C00E94F313A4
:102DD000E6E0F1E08081803FA9F4E2E3F0E0808169
:102DE000882F90E083709070009761F481E090E00C
:102DF0009E838D8380918A0390918B030E948B1315
:102E00000E94E913E6E0F1E080818633E9F4E2E331
:102E1000F0E08081882F90E0837090700097A1F49B
:102E200081E090E09E838D838091CE0D9091CF0DB7
:102E30000E948B138F8198858330910519F40E942D
:102E4000F31302C00E94E913E6E0F1E08081803BC9
:102E5000A9F4E2E3F0E08081882F90E08370907025
:102E6000009761F481E090E09E838D838091CE0D88
:102E70009091CF0D0E948B130E94E913E6E0F1E0E0
:102E80008081823319F5E2E3F0E08081882F90E0C1
:102E9000837090700097D1F481E090E09E838D83E1
:102EA0008091CE0D9091CF0D0E948B138F819885CC
:102EB0008330910549F480918A0390918B030E949D
:102EC0008B130E94F31302C00E94E913E6E0F1E0C5
:102ED0008081803321F5E2E3F0E08081882F90E06B
:102EE0008370907081309105D1F481E090E09E83F1
:102EF0008D838091CE0D9091CF0D0E948B138F8189
:102F000098858330910549F48091810390918203E3
:102F10000E948B130E94F31302C00E94E913E6E0A3
:102F2000F1E08081843319F5E2E3F0E08081882FBD
:102F300090E0837090700097D1F481E090E09E83E0
:102F40008D838091CE0D9091CF0D0E948B138F8138
:102F500098858330910549F480918A0390918B0381
:102F60000E948B130E94F31302C00E94E913E6E053
:102F7000F1E08081813321F5E2E3F0E08081882F68
:102F800090E08370907081309105D1F481E090E001
:102F90009E838D838091CE0D9091CF0D0E948B13D7
:102FA0008F8198858330910549F4809181039091B8
:102FB00082030E948B130E94F31302C00E94E91344
:102FC000E6E0F1E08081833319F5E2E3F0E080810F
:102FD000882F90E0837090700097D1F481E090E0AA
:102FE0009E838D838091CE0D9091CF0D0E948B1387
:102FF0008F8198858330910549F480918A0390915F
:103000008B030E948B130E94F31302C00E94E913EA
:10301000E6E0F1E080818033B1F4E2E3F0E080812A
:10302000882F90E0837090708230910561F481E088
:1030300090E09E838D838091CE0D9091CF0D0E9464
:103040008B130E94E913E6E0F1E080818037B1F450
:10305000E2E3F0E08081882F90E08370907082300E
:10306000910561F481E090E09E838D838091CE0D87
:103070009091CF0D0E948B130E94E913E6E0F1E0DE
:103080008081803BB1F4E2E3F0E08081882F90E022
:10309000837090708230910561F481E090E09E83AE
:1030A0008D838091CE0D9091CF0D0E948B130E9445
:1030B000E913E6E0F1E08081873319F5E2E3F0E01F
:1030C0008081882F90E0837090700097D1F481E028
:1030D00090E09E838D838091CE0D9091CF0D0E94C4
:1030E0008B138F8198858330910549F480918A03F1
:1030F00090918B030E948B130E94F31302C00E94D5
:10310000E913E6E0F1E08081833321F5E2E3F0E0CA
:103110008081882F90E08370907081309105D1F488
:1031200081E090E09E838D838091CE0D9091CF0DB4
:103130000E948B138F8198858330910549F480918B
:103140008A0390918B030E948B130E94F31302C099
:103150000E94E913E6E0F1E08081813319F5E2E3B2
:10316000F0E08081882F90E0837090700097D1F418
:1031700081E090E09E838D838091CE0D9091CF0D64
:103180000E948B138F8198858330910549F480913B
:103190008A0390918B030E948B130E94F31302C049
:1031A0000E94E913E6E0F1E08081833621F5E2E355
:1031B000F0E08081882F90E08370907081309105DD
:1031C000D1F481E090E09E838D838091CE0D90912B
:1031D000CF0D0E948B138F8198858330910549F420
:1031E00080918A0390918B030E948B130E94F313AA
:1031F00002C00E94E913E6E0F1E08081833621F508
:10320000E2E3F0E08081882F90E08370907081305D
:103210009105D1F481E090E09E838D838091CE0D65
:103220009091CF0D0E948B138F81988583309105EB
:1032300049F480918A0390918B030E948B130E9422
:10324000F31302C00E94E913E6E0F1E080818736C3
:1032500019F5E2E3F0E08081882F90E083709070B0
:103260000097D1F481E090E09E838D838091CE0D14
:103270009091CF0D0E948B138F819885833091059B
:1032800049F480918A0390918B030E948B130E94D2
:10329000F31302C00E94E913E6E0F1E080818B3174
:1032A00021F5E2E3F0E08081882F90E08370907058
:1032B00081309105D1F481E090E09E838D838091EF
:1032C0008103909182030E948B138F8198858330B4
:1032D000910549F480918A0390918B030E948B138E
:1032E0000E94F31302C00E94C113E6E0F1E0808166
:1032F000893121F5E2E3F0E08081882F90E083704E
:10330000907081309105D1F481E090E09E838D83AF
:1033100080918103909182030E948B138F81988505
:103320008330910549F480918A0390918B030E9428
:103330008B130E94F31302C00E94C113E6E0F1E078
:1033400080818D3119F5E2E3F0E08081882F90E0F3
:10335000837090700097D1F481E090E09E838D831C
:1033600080918103909182030E948B138F819885B5
:103370008330910549F480918A0390918B030E94D8
:103380008B130E94F31302C00E94C113E6E0F1E028
:103390008081893119F5E2E3F0E08081882F90E0A7
:1033A000837090700097D1F481E090E09E838D83CC
:1033B00080918103909182030E948B138F81988565
:1033C0008330910549F480918103909182030E949A
:1033D0008B130E94F31302C00E94C113E6E0F1E0D8
:1033E0008081883121F5E2E3F0E08081882F90E050
:1033F0008370907081309105D1F481E090E09E83DC
:103400008D8380918103909182030E948B138F8121
:1034100098858330910549F48091810390918203CE
:103420000E948B130E94F31302C00E94C113E6E0B6
:10343000F1E080818A3119F5E2E3F0E08081882FA4
:1034400090E0837090700097D1F481E090E09E83CB
:103450008D8380918103909182030E948B138F81D1
:1034600098858330910549F480918A0390918B036C
:103470000E948B130E94F31302C00E94C113E6E066
:10348000F1E080818830B1F4E2E3F0E08081882FC0
:1034900090E0837090708130910561F481E090E05C
:1034A0009E838D8380918A0390918B030E948B135E
:1034B0000E94F313E6E0F1E080818930B1F4E2E3A9
:1034C000F0E08081882F90E08370907081309105CA
:1034D00061F481E090E09E838D8380918A039091D6
:1034E0008B030E948B130E94F313E6E0F1E08081CE
:1034F0008930A9F4E2E3F0E08081882F90E08370C6
:103500009070009761F481E090E09E838D838091BC
:103510008A0390918B030E948B130E94F313E6E0C1
:10352000F1E080818B30A9F4E2E3F0E08081882F24
:1035300090E083709070009761F481E090E09E834A
:103540008D8380918A0390918B030E948B130E943C
:10355000F313E6E0F1E080818B30B1F4E2E3F0E0D8
:103560008081882F90E0837090708130910561F4A4
:1035700081E090E09E838D8380918A0390918B03FC
:103580000E948B130E94F313E6E0F1E080818C30FF
:10359000B1F4E2E3F0E08081882F90E083709070D6
:1035A0008130910561F481E090E09E838D8380916C
:1035B0008A0390918B030E948B130E94F313E6E021
:1035C000F1E080818F30B1F4E2E3F0E08081882F78
:1035D00090E0837090708130910561F481E090E01B
:1035E0009E838D8380918A0390918B030E948B131D
:1035F0000E94F313E6E0F1E080818D30B1F4E2E364
:10360000F0E08081882F90E0837090708130910588
:1036100061F481E090E09E838D8380918A03909194
:103620008B030E948B130E94F313E6E0F1E080818C
:103630008630A9F4E2E3F0E08081882F90E0837087
:103640009070009761F481E090E09E838D8380917B
:103650008A0390918B030E948B130E94F313E6E080
:10366000F1E080818230A9F4E2E3F0E08081882FEC
:1036700090E083709070009761F481E090E09E8309
:103680008D8380918A0390918B030E948B130E94FB
:10369000F313E6E0F1E080818330A9F4E2E3F0E0A7
:1036A0008081882F90E083709070009761F481E0B2
:1036B00090E09E838D8380918A0390918B030E947A
:1036C0008B130E94F313E6E0F1E080818330B1F4C4
:1036D000E2E3F0E08081882F90E083709070813089
:1036E000910561F481E090E09E838D8380918A034F
:1036F00090918B030E948B130E94F313E6E0F1E09C
:1037000080818430A9F4E2E3F0E08081882F90E0AA
:1037100083709070009761F481E090E09E838D83C8
:1037200080918A0390918B030E948B130E94F31364
:10373000E6E0F1E080818130B1F4E2E3F0E0808105
:10374000882F90E0837090708130910561F481E062
:1037500090E09E838D8380918A0390918B030E94D9
:103760008B130E94F313E6E0F1E080818823B1F42B
:10377000E2E3F0E08081882F90E0837090708130E8
:10378000910561F481E090E09E838D8380918103B7
:10379000909182030E948B130E94F313E6E0F1E004
:1037A00080818037A9F4E2E3F0E08081882F90E007
:1037B00083709070009761F481E090E09E838D8328
:1037C0008091CE0D9091CF0D0E948B130E94E91332
:1037D000E6E0F1E080818036A9F4E2E3F0E0808168
:1037E000882F90E083709070009761F481E090E002
:1037F0009E838D838091CE0D9091CF0D0E948B136F
:103800000E94E913E6E0F1E080818033A9F4E2E36D
:10381000F0E08081882F90E083709070009761F4D1
:1038200081E090E09E838D838091CE0D9091CF0DAD
:103830000E948B130E94E913E6E0F1E08081803260
:10384000A9F4E2E3F0E08081882F90E0837090702B
:10385000009761F481E090E09E838D838091CE0D8E
:103860009091CF0D0E948B130E94E913E6E0F1E0E6
:103870008081803EA9F4E2E3F0E08081882F90E02F
:1038800083709070009761F481E090E09E838D8357
:103890008091CE0D9091CF0D0E948B130E94E91361
:1038A000E6E0F1E08081803EB1F4E2E3F0E0808187
:1038B000882F90E0837090708230910561F481E0F0
:1038C00090E09E838D838091CE0D9091CF0D0E94CC
:1038D0008B130E94E913E6E0F1E08081803FA9F4B8
:1038E000E2E3F0E08081882F90E083709070009791
:1038F00061F481E090E09E838D838091CE0D909164
:10390000CF0D0E948B130E94E913E6E0F1E0808165
:103910008031A9F4E2E3F0E08081882F90E08370A9
:103920009070009761F481E090E09E838D83809198
:10393000CE0D9091CF0D0E948B130E94E913E6E00B
:10394000F1E080818E3319F5E2E3F0E08081882F89
:1039500090E0837090700097D1F481E090E09E83B6
:103960008D838091CE0D9091CF0D0E948B138F810E
:1039700098858330910549F480918A0390918B0357
:103980000E948B130E94F31302C00E94E913E6E029
:10399000F1E08081873221F5E2E3F0E08081882F39
:1039A00090E08370907081309105D1F481E090E0D7
:1039B0009E838D838091CE0D9091CF0D0E948B13AD
:1039C0008F8198858330910549F480918A03909185
:1039D0008B030E948B130E94F31302C00E94E91311
:1039E000E6E0F1E080818038A9F4E2E3F0E0808154
:1039F000882F90E083709070009761F481E090E0F0
:103A00009E838D8380918103909182030E948B130A
:103A10000E94E913E6E0F1E080818038B1F4E2E34E
:103A2000F0E08081882F90E0837090708230910563
:103A300061F481E090E09E838D8380918103909179
:103A400082030E948B130E94E913E6E0F1E080817B
:103A50008823B1F4E2E3F0E08081882F90E0837066
:103A600090708230910561F481E090E09E838D83B7
:103A700080918103909182030E948B130E94E9132D
:103A8000E6E0F1E080818034A9F4E2E3F0E08081B7
:103A9000882F90E083709070009761F481E090E04F
:103AA0009E838D8380918103909182030E948B136A
:103AB0000E94E913E6E0F1E08081803CA9F4E2E3B2
:103AC000F0E08081882F90E083709070009761F41F
:103AD00081E090E09E838D838091810390918203A9
:103AE0000E948B130E94E913E6E0F1E080818C31A3
:103AF00019F5E2E3F0E08081882F90E08370907008
:103B00000097D1F481E090E09E838D8380918103C2
:103B1000909182030E948B138F8198858330910549
:103B200049F48091CE0D9091CF0D0E948B130E948D
:103B3000F31302C00E94C113E6E0F1E080818E31F0
:103B400019F5E2E3F0E08081882F90E083709070B7
:103B50000097D1F481E090E09E838D838091810372
:103B6000909182030E948B138F81988583309105F9
:103B700049F480918A0390918B030E948B130E94D9
:103B8000F31302C00E94C113E6E0F1E080818833A4
:103B900019F5E2E3F0E08081882F90E08370907067
:103BA0000097D1F481E090E09E838D838091810322
:103BB000909182030E948B138F81988584309105A8
:103BC00049F48091CE0D9091CF0D0E948B130E94ED
:103BD000E91302C00E94C113E6E0F1E0808188375A
:103BE00019F5E2E3F0E08081882F90E08370907017
:103BF0000097D1F481E090E09E838D8380918103D2
:103C0000909182030E948B138F8198858430910557
:103C100049F480918A0390918B030E948B130E9438
:103C2000E91302C00E94C113E6E0F1E0808188310F
:103C3000F1F4E2E3F0E08081882F90E083709070EF
:103C400082309105A1F481E090E09E838D838F8185
:103C500098858430910549F4809181039091820385
:103C60000E948B130E94E91302C00E94C113E6E078
:103C7000F1E08081883919F5E2E3F0E08081882F56
:103C800090E0837090700097D1F481E090E09E8383
:103C90008D8380918103909182030E948B138F8189
:103CA00098858430910549F4809181039091820335
:103CB0000E948B130E94E91302C00E94C113E6E028
:103CC000F1E08081883519F5E2E3F0E08081882F0A
:103CD00090E0837090700097D1F481E090E09E8333
:103CE0008D8380918103909182030E948B138F8139
:103CF00098858430910549F48091810390918203E5
:103D00000E948B130E94E91302C00E94C113E6E0D7
:103D1000F1E08081883921F5E2E3F0E08081882FAD
:103D200090E08370907082309105D1F481E090E052
:103D30009E838D8380918103909182030E948B13D7
:103D40008F8198858430910549F480918103909109
:103D500082030E948B130E94E91302C00E94C113C8
:103D6000E6E0F1E08081883D19F5E2E3F0E0808152
:103D7000882F90E0837090700097D1F481E090E0FC
:103D80009E838D8380918103909182030E948B1387
:103D90008F8198858430910549F4809181039091B9
:103DA00082030E948B130E94E91302C00E94C11378
:103DB000E6E0F1E08081883D21F5E2E3F0E08081FA
:103DC000882F90E08370907082309105D1F481E06B
:103DD00090E09E838D8380918103909182030E9465
:103DE0008B138F8198858430910549F480918103EC
:103DF000909182030E948B130E94E91302C00E94DB
:103E0000C113E6E0F1E08081863C19F5E2E3F0E0E1
:103E10008081882F90E0837090700097D1F481E0CA
:103E200090E09E838D8380918103909182030E9414
:103E30008B138F8198858430910549F480918A0392
:103E400090918B030E948B130E94E91302C00E9481
:103E5000C113E6E0F1E08081863619F5E2E3F0E097
:103E60008081882F90E0837090700097D1F481E07A
:103E700090E09E838D8380918103909182030E94C4
:103E80008B138F8198858430910549F480918A0342
:103E900090918B030E948B130E94E91302C00E9431
:103EA000C113E6E0F1E08081863821F5E2E3F0E03D
:103EB0008081882F90E08370907082309105D1F4DA
:103EC00081E090E09E838D838091810390918203B5
:103ED0000E948B138F8198858430910549F48091DD
:103EE0008A0390918B030E948B130E94E91302C0F6
:103EF0000E94C1138F8198858430910509F050C0CC
:103F0000E2E3F0E08081882F90E08270907000976B
:103F100061F081E090E09E838D8380918103909198
:103F200082030E948B130E94E913E6E0F1E0808196
:103F3000882364F481E090E09E838D8380918103E7
:103F4000909182030E948B130E94E913E6E0F1E056
:103F50008081882F90E080749070009761F081E0FC
:103F600090E09E838D8380918A0390918B030E94C1
:103F70008B130E94E913E6E0F1E08081882F90E046
:103F800080729070009761F081E090E09E838D8355
:103F90008091CE0D9091CF0D0E948B130E94E9135A
:103FA0008F8198858330910509F054C0E2E3F0E0F9
:103FB0008081882F90E081709070882361F081E08B
:103FC00090E09E838D8380918103909182030E9473
:103FD0008B130E94F313E6E0F1E08081882F90E0DC
:103FE00081709070882361F081E090E09E838D83E2
:103FF00080918103909182030E948B130E94F3139E
:10400000E6E0F1E08081882F90E082709070009768
:1040100061F081E090E09E838D8380918A0390918E
:104020008B030E948B130E94F313E6E0F1E0808182
:10403000882F90E084709070009761F081E090E0AC
:104040009E838D838091CE0D9091CF0D0E948B1316
:104050000E94F3138D819E81009741F480918A0321
:1040600090918B030E948B130E94C1131E821D82AC
:104070000C944D141092890310928803E6E0F1E04D
:104080008081882F90E088709070009731F484E0F0
:1040900090E09093890380938803E6E0F1E08081CB
:1040A000882F90E080719070009731F484E090E068
:1040B000909389038093880388E090E090930903AC
:1040C00080930803E2E3F0E08081882F90E0807124
:1040D0009070009731F082E090E090930903809314
:1040E0000803E2E3F0E08081882F90E08072907016
:1040F000009731F083E090E09093090380930803E8
:10410000E2E3F0E08081882F90E084709070009767
:1041100031F081E090E09093090380930803E2E39B
:10412000F0E08081882F90E088709070009721F0F7
:1041300010920903109208030E94111428960FB6DA
:10414000F894DEBF0FBECDBFCF91DF9108951F92CF
:104150000F920FB60F9211248F939F93DF93CF93FB
:10416000CDB7DEB780910E0390910F030196909327
:104170000F0380930E03CF91DF919F918F910F904A
:104180000FBE0F901F901895DF93CF93CDB7DEB77A
:10419000AAE2B0E0EAE2F0E080818D7F8C93ABE2AE
:1041A000B0E0EBE2F0E0808182608C93ADE3B0E0C0
:1041B000EDE3F0E0808182608C93A9E6B0E0E9E66F
:1041C000F0E080818B7F8C93A9E6B0E0E9E6F0E037
:1041D000808188608C937894CF91DF910895DF93EC
:1041E000CF9300D0CDB7DEB79A83898310920F03A7
:1041F00010920E03789480912402909125020E94DF
:104200003C1480918A0390918B030E948B130E942F
:10421000D51310920F0310920E0320910E033091CC
:104220000F0389819A8182179307BCF7E6E0F1E0DA
:104230008081882F90E0887090700097D9F4E6E034
:10424000F1E08081882F90E080719070009791F468
:10425000E6E0F1E08081882F90E080729070009716
:1042600049F4E6E0F1E08081882F90E0847090705E
:10427000009799F20E9411140F900F90CF91DF9147
:104280000895DF93CF93CDB7DEB7EC970FB6F894D0
:10429000DEBF0FBECDBF9AAF89AF7CAF6BAF1092C0
:1042A0000F0310920E0378948091240290912502BE
:1042B0000E943C148BAD9CAD8A30910509F0FDC085
:1042C0000E94F81280E090E0A8E4B3E48DAB9EABCE
:1042D000AFABB8AF6DA97EA98FA998AD26E636E63B
:1042E00046E655E40E94E53ADC01CB0189AB9AAB86
:1042F000ABABBCAB69A97AA98BA99CA920E030E043
:1043000040E85FE30E943F3C88232CF481E090E08A
:1043100098AB8FA73FC069A97AA98BA99CA920E077
:104320003FEF4FE757E40E94DF3B18164CF56DA9AD
:104330007EA98FA998AD20E030E040E251E40E94D0
:10434000E53ADC01CB01BC01CD010E940F39DC0153
:10435000CB0198AB8FA70FC080E791E09EA78DA7F8
:104360008DA59EA50197F1F79EA78DA78FA598A96A
:10437000019798AB8FA78FA598A9009769F714C0EC
:1043800069A97AA98BA99CA90E940F39DC01CB01EC
:1043900098AB8FA78FA598A99CA78BA78BA59CA549
:1043A0000197F1F79CA78BA70E94121380E090E081
:1043B000A8E4B3E48FA398A7A9A7BAA76FA178A58B
:1043C00089A59AA526E636E646E655E40E94E53A32
:1043D000DC01CB018BA39CA3ADA3BEA36BA17CA1ED
:1043E0008DA19EA120E030E040E85FE30E943F3CC9
:1043F00088232CF481E090E09AA389A33FC06BA1AD
:104400007CA18DA19EA120E03FEF4FE757E40E94E1
:10441000DF3B18164CF56FA178A589A59AA520E079
:1044200030E040E251E40E94E53ADC01CB01BC01FE
:10443000CD010E940F39DC01CB019AA389A30FC0E3
:1044400080E791E098A38F8F8F8D98A10197F1F766
:1044500098A38F8F89A19AA101979AA389A389A173
:104460009AA1009769F714C06BA17CA18DA19EA1B0
:104470000E940F39DC01CB019AA389A389A19AA1DB
:104480009E8F8D8F8D8D9E8D0197F1F79E8F8D8FD5
:1044900080918A0390918B030E948B1380910C036F
:1044A00090910D03009719F40E94D51302C00E9449
:1044B000DF1310920F0310920E038BAD9CAD8B3067
:1044C000910509F0FEC00E94F81280E090E0A8E497
:1044D000B3E4898F9A8FAB8FBC8F698D7A8D8B8D6A
:1044E0009C8D26E636E646E655E40E94E53ADC0178
:1044F000CB018D8B9E8BAF8BB88F6D897E898F8919
:10450000988D20E030E040E85FE30E943F3C882344
:104510002CF481E090E09C8B8B8B3FC06D897E8971
:104520008F89988D20E03FEF4FE757E40E94DF3BF3
:1045300018164CF5698D7A8D8B8D9C8D20E030E0BE
:1045400040E251E40E94E53ADC01CB01BC01CD011F
:104550000E940F39DC01CB019C8B8B8B0FC080E755
:1045600091E09A8B898B89899A890197F1F79A8BC7
:10457000898B8B899C8901979C8B8B8B8B899C89E0
:10458000009769F714C06D897E898F89988D0E9484
:104590000F39DC01CB019C8B8B8B8B899C89988B91
:1045A0008F878F8598890197F1F7988B8F870E9465
:1045B000121380E090E0A8E4B3E48B879C87AD877A
:1045C000BE876B857C858D859E8526E636E646E62C
:1045D00055E40E94E53ADC01CB018F839887A987D7
:1045E000BA876F81788589859A8520E030E040E838
:1045F0005FE30E943F3C88232CF481E090E09E839F
:104600008D833FC06F81788589859A8520E03FEF53
:104610004FE757E40E94DF3B18164CF56B857C850D
:104620008D859E8520E030E040E251E40E94E53A2D
:10463000DC01CB01BC01CD010E940F39DC01CB01B3
:104640009E838D830FC080E791E09C838B838B8159
:104650009C810197F1F79C838B838D819E810197CB
:104660009E838D838D819E81009769F714C06F8131
:10467000788589859A850E940F39DC01CB019E835C
:104680008D838D819E819A83898389819A81019707
:10469000F1F79A83898380918A0390918B030E941A
:1046A0008B1380910C0390910D038130910519F4C7
:1046B0000E94D51302C00E94DF1310920F031092C4
:1046C0000E038BAD9CAD8230910531F40E94DF1357
:1046D00010920F0310920E0320910E0330910F03DE
:1046E00089AD9AAD82179307BCF7E6E0F1E08081CF
:1046F000882F90E0887090700097D9F4E6E0F1E0A0
:104700008081882F90E080719070009791F4E6E0AE
:10471000F1E08081882F90E080729070009749F4DA
:10472000E6E0F1E08081882F90E08470907000973F
:1047300099F20E941114EC960FB6F894DEBF0FBEEA
:10474000CDBFCF91DF910895DF93CF9300D0CDB748
:10475000DEB79A83898310920F0310920E03789428
:1047600080912402909125020E943C1480918A033A
:1047700090918B030E948B130E94DF1310920F0302
:1047800010920E0320910E0330910F0389819A81BC
:1047900082179307BCF7E6E0F1E08081882F90E074
:1047A000887090700097D9F4E6E0F1E08081882F5E
:1047B00090E080719070009791F4E6E0F1E08081E4
:1047C000882F90E080729070009749F4E6E0F1E065
:1047D0008081882F90E084709070009799F20E94F9
:1047E00011140F900F90CF91DF910895DF93CF9325
:1047F00000D000D0CDB7DEB79A8389837C836B83EA
:1048000089819A812B813C81821B930B8730910592
:1048100009F0F3C080910C0390910D03009709F00B
:1048200072C08B819C8126E030E0B9010E947D3E00
:10483000CB01FC018B819C8126E030E0B9010E9414
:104840007D3E9C012F5F3F4FCF01880F991F8E0F38
:104850009F1F880F991F820F931FFC01E85AFC4F7E
:104860008081823011F18B819C8126E030E0B9019A
:104870000E947D3ECB01FC018B819C8126E030E0D3
:10488000B9010E947D3E9C012F5F3F4FCF01880FF1
:10489000991F8E0F9F1F880F991F820F931FFC0176
:1048A000E85AFC4F80818630A9F410920F031092D1
:1048B0000E0383E090E00E943C1488E090E0909327
:1048C00025028093240281E090E090930D03809371
:1048D0000C0395C380E190E00E94A42387E190E05F
:1048E00090930F0380930E0384E090E00E943C14A9
:1048F0008BE090E0909325028093240210920D03A8
:1049000010920C037CC380910C0390910D038130B5
:10491000910509F074C38B819C8126E030E0B901D8
:104920000E947D3ECB01FC018B819C8126E030E022
:10493000B9010E947D3E9C012F5F3F4FCF01880F40
:10494000991F8E0F9F1F880F991F820F931FFC01C5
:10495000E85AFC4F8081823011F18B819C8126E0E6
:1049600030E0B9010E947D3ECB01FC018B819C812E
:1049700026E030E0B9010E947D3E9C012F5F3F4F51
:10498000CF01880F991F8E0F9F1F880F991F820FCD
:10499000931FFC01E85AFC4F80818630D9F480E1F6
:1049A00090E00E94EF2087E190E090930F038093C6
:1049B0000E0383E090E00E943C1488E090E0909326
:1049C00025028093240281E090E090930D03809370
:1049D0000C0315C310920F0310920E0384E090E0B5
:1049E0000E943C148BE090E0909325028093240277
:1049F00010920D0310920C0302C389819A812B81BE
:104A00003C81821B930B2FEF8B3F920709F0F3C081
:104A100080910C0390910D03009709F072C08B8177
:104A20009C8126E030E0B9010E947D3ECB01FC0173
:104A30008B819C8126E030E0B9010E947D3E9C0183
:104A40002F5F3F4FCF01880F991F8E0F9F1F880F39
:104A5000991F820F931FFC01E85AFC4F808183301D
:104A600011F18B819C8126E030E0B9010E947D3EEE
:104A7000CB01FC018B819C8126E030E0B9010E94D2
:104A80007D3E9C012F5F3F4FCF01880F991F8E0FF6
:104A90009F1F880F991F820F931FFC01E85AFC4F3C
:104AA00080818730A9F410920F0310920E0384E0E6
:104AB00090E00E943C148BE090E09093250280935C
:104AC000240283E090E090930D0380930C0397C23F
:104AD00080E190E00E94EF2087E190E090930F0347
:104AE00080930E0383E090E00E943C1488E090E005
:104AF000909325028093240210920D0310920C03D0
:104B00007EC280910C0390910D038330910509F0D2
:104B100076C28B819C8126E030E0B9010E947D3E07
:104B2000CB01FC018B819C8126E030E0B9010E9421
:104B30007D3E9C012F5F3F4FCF01880F991F8E0F45
:104B40009F1F880F991F820F931FFC01E85AFC4F8B
:104B50008081833011F18B819C8126E030E0B901A6
:104B60000E947D3ECB01FC018B819C8126E030E0E0
:104B7000B9010E947D3E9C012F5F3F4FCF01880FFE
:104B8000991F8E0F9F1F880F991F820F931FFC0183
:104B9000E85AFC4F80818730D9F480E190E00E9490
:104BA000A42387E190E090930F0380930E0384E0A9
:104BB00090E00E943C148BE090E09093250280935B
:104BC000240283E090E090930D0380930C0317C2BE
:104BD00010920F0310920E0383E090E00E943C14A9
:104BE00088E090E0909325028093240210920D03B8
:104BF00010920C0304C289819A812B813C81821B13
:104C0000930B2FEF893F920709F0F8C080910C03B6
:104C100090910D038230910509F074C08B819C81C5
:104C200026E030E0B9010E947D3ECB01FC018B8182
:104C30009C8126E030E0B9010E947D3E9C0121501C
:104C40003040CF01880F991F8E0F9F1F880F991F2B
:104C5000820F931FFC01E85AFC4F8081882311F1D9
:104C60008B819C8126E030E0B9010E947D3ECB0122
:104C7000FC018B819C8126E030E0B9010E947D3EE1
:104C80009C0121503040CF01880F991F8E0F9F1F2C
:104C9000880F991F820F931FFC01E85AFC4F8081F7
:104CA0008430A9F410920F0310920E0383E090E079
:104CB0000E943C1488E090E09093250280932402A7
:104CC00083E090E090930D0380930C0398C180E102
:104CD00090E00E94A42387E190E090930F038093DB
:104CE0000E0384E090E00E943C148BE090E09093EF
:104CF00025028093240282E090E090930D0380933C
:104D00000C037DC180910C0390910D0383309105BC
:104D100009F075C18B819C8126E030E0B9010E94C9
:104D20007D3ECB01FC018B819C8126E030E0B90106
:104D30000E947D3E9C0121503040CF01880F991F79
:104D40008E0F9F1F880F991F820F931FFC01E85A37
:104D5000FC4F8081882311F18B819C8126E030E01B
:104D6000B9010E947D3ECB01FC018B819C8126E034
:104D700030E0B9010E947D3E9C0121503040CF01BE
:104D8000880F991F8E0F9F1F880F991F820F931FE7
:104D9000FC01E85AFC4F80818430D9F480E190E036
:104DA0000E94EF2087E190E090930F0380930E0321
:104DB00083E090E00E943C1488E090E0909325020C
:104DC0008093240283E090E090930D0380930C0382
:104DD00016C110920F0310920E0384E090E00E941F
:104DE0003C148BE090E0909325028093240282E0B3
:104DF00090E090930D0380930C0301C189819A8107
:104E00002B813C81821B930B8530910509F0F7C003
:104E100080910C0390910D038230910509F074C0CC
:104E20008B819C8126E030E0B9010E947D3ECB0160
:104E3000FC018B819C8126E030E0B9010E947D3E1F
:104E40009C0121503040CF01880F991F8E0F9F1F6A
:104E5000880F991F820F931FFC01E85AFC4F808135
:104E6000813011F18B819C8126E030E0B9010E94F4
:104E70007D3ECB01FC018B819C8126E030E0B901B5
:104E80000E947D3E9C0121503040CF01880F991F28
:104E90008E0F9F1F880F991F820F931FFC01E85AE6
:104EA000FC4F80818530A9F410920F0310920E03FD
:104EB00084E090E00E943C148BE090E09093250207
:104EC0008093240281E090E090930D0380930C0383
:104ED00096C080E190E00E94EF2087E190E09093FF
:104EE0000F0380930E0383E090E00E943C1488E05F
:104EF00090E0909325028093240282E090E09093CA
:104F00000D0380930C037BC080910C0390910D03E3
:104F10008130910509F073C08B819C8126E030E0DF
:104F2000B9010E947D3ECB01FC018B819C8126E072
:104F300030E0B9010E947D3E9C0121503040CF01FC
:104F4000880F991F8E0F9F1F880F991F820F931F25
:104F5000FC01E85AFC4F8081813011F18B819C81EA
:104F600026E030E0B9010E947D3ECB01FC018B813F
:104F70009C8126E030E0B9010E947D3E9C012150D9
:104F80003040CF01880F991F8E0F9F1F880F991FE8
:104F9000820F931FFC01E85AFC4F80818530D9F4C1
:104FA00080E190E00E94A42387E190E090930F03BA
:104FB00080930E0384E090E00E943C148BE090E02C
:104FC000909325028093240281E090E090930D035A
:104FD00080930C0314C010920F0310920E0383E011
:104FE00090E00E943C1488E090E09093250280932A
:104FF000240282E090E090930D0380930C030F90C5
:105000000F900F900F90CF91DF910895DF93CF9382
:1050100000D000D000D0CDB7DEB79A8389837C83DF
:105020006B8389819A812B813C81821B930B813018
:10503000910509F04DC080910C0390910D038130D2
:10504000910551F480E190E00E94EF2087E190E02B
:1050500090930F0380930E0380910C0390910D03A6
:10506000009721F410920F0310920E0380910C030D
:1050700090910D038230910561F48EE190E062E041
:1050800070E00E94412187E190E090930F038093AC
:105090000E0380910C0390910D038330910551F420
:1050A00080E190E00E94A42387E190E090930F03B9
:1050B00080930E0310920D0310920C0381E090E098
:1050C0000E943C1488E090E0909325028093240293
:1050D00089819A812B813C81821B930B2FEF8F3F1B
:1050E000920709F04FC080910C0390910D0381301D
:1050F000910551F480E190E00E94A42387E190E0C3
:1051000090930F0380930E0380910C0390910D03F5
:10511000009761F48EE190E062E070E00E9441212E
:1051200087E190E090930F0380930E0380910C032E
:1051300090910D038230910521F410920F0310928B
:105140000E0380910C0390910D038330910551F46F
:1051500080E190E00E94EF2087E190E090930F03C0
:1051600080930E0382E090E090930D0380930C03F4
:1051700081E090E00E943C1488E090E0909325024A
:105180008093240289819A812B813C81821B930B1D
:105190008630910509F04FC080910C0390910D036A
:1051A0008130910521F410920F0310920E0380912B
:1051B0000C0390910D03009751F480E190E00E9460
:1051C000A42387E190E090930F0380930E038091D6
:1051D0000C0390910D038230910551F480E190E031
:1051E0000E94EF2087E190E090930F0380930E03DD
:1051F00080910C0390910D038330910561F48EE151
:1052000090E062E070E00E94412187E190E090939D
:105210000F0380930E0381E090E090930D03809341
:105220000C0381E090E00E943C1488E090E09093B1
:1052300025028093240289819A812B813C81821BE3
:10524000930B2FEF8A3F920709F04FC080910C0318
:1052500090910D038130910561F48EE190E062E060
:1052600070E00E94412187E190E090930F038093CA
:105270000E0380910C0390910D03009751F480E18F
:1052800090E00E94EF2087E190E090930F038093DD
:105290000E0380910C0390910D038230910551F41F
:1052A00080E190E00E94A42387E190E090930F03B7
:1052B00080930E0380910C0390910D038330910530
:1052C00021F410920F0310920E0383E090E090936C
:1052D0000D0380930C0381E090E00E943C1488E071
:1052E00090E0909325028093240226960FB6F894BE
:1052F000DEBF0FBECDBFCF91DF910895EF92FF9239
:105300000F931F93DF93CF93CDB7DEB766970FB69A
:10531000F894DEBF0FBECDBF1E8A1D8A3BC01C8A1B
:105320001B8A2EC00D891E89EB88FC882D893E8939
:10533000C901880F991F820F931F880F991F9C0125
:105340008091220290912302280F391F8B899C891A
:10535000820F931F0E94A52A282F2053C801880F6F
:10536000991F800F911F880F991F8E0D9F1DFC01A3
:10537000E85AFC4F20838B899C8901969C8B8B8BF0
:105380008B899C89863091056CF28D899E89019666
:105390009E8B8D8B8D899E89863091050CF4BFCFB5
:1053A0000E94E20F86E292E00E94A00E82E061E09D
:1053B0000E94BC0E87E392E00E94A00E80E090E085
:1053C000AAE7B4E48B879C87AD87BE876B857C8515
:1053D0008D859E8526E636E646E655E40E94E53A4A
:1053E000DC01CB018F839887A987BA876F81788585
:1053F00089859A8520E030E040E85FE30E943F3CE9
:1054000088232CF481E090E09E838D833FC06F81E0
:10541000788589859A8520E03FEF4FE757E40E9421
:10542000DF3B18164CF56B857C858D859E8520E0CD
:1054300030E040E251E40E94E53ADC01CB01BC01DE
:10544000CD010E940F39DC01CB019E838D830FC0FB
:1054500080E791E09C838B838B819C810197F1F79E
:105460009C838B838D819E8101979E838D838D810B
:105470009E81009769F714C06F81788589859A8528
:105480000E940F39DC01CB019E838D838D819E812B
:105490009A83898389819A810197F1F79A83898315
:1054A00081E061E00E94BC0E1A8A198A3BC0188A0A
:1054B0001F862EC029893A89C901880F991F820F3A
:1054C000931F880F991F9C018F859889820F931FC6
:1054D0008031910521F482E061E00E94BC0E2989AF
:1054E0003A894F855889C901880F991F820F931FE8
:1054F000880F991F840F951FFC01E85AFC4F80818B
:10550000805D0E943C0D8F8598890196988B8F87CE
:105510008F859889863091056CF289899A890196E0
:105520009A8B898B89899A89863091050CF4BFCF33
:1055300066960FB6F894DEBF0FBECDBFCF91DF9158
:105540001F910F91FF90EF900895DF93CF9300D0BC
:105550000F92CDB7DEB79B838A83EFE3F0E08081C3
:10556000882F90E0827090700097B9F7E1E4F0E046
:105570008A819B8191838083F89A80B58983898110
:105580000F900F900F90CF91DF910895DF93CF93FD
:10559000CDB7DEB72A970FB6F894DEBF0FBECDBFEA
:1055A0000E94E20F8EE392E00E94A00E1A861986F6
:1055B0008BC318861F827DC329853A854F81588504
:1055C000C901880F991F820F931F880F991F840F9D
:1055D000951FFC01E85AFC4F80818823A1F02985A2
:1055E0003A854F815885C901880F991F820F931FF3
:1055F000880F991F840F951FFC01E85AFC4F80818A
:10560000843009F076C029853A85C901880F991F31
:10561000820F931F880F991F9C01265030408F8165
:105620009885B901680F791F29853A85C901880FC6
:10563000991F820F931F880F991F9C018F81988556
:10564000820F931FAC014F5F5F4FCB01880F991FF3
:10565000880F991F9C01220F331F220F331F220F27
:10566000331F820F931F840F951F880F991FFC0112
:10567000EF56FC4F81E090E09183808329853A8545
:10568000C901880F991F820F931F880F991F9C01D2
:105690008F819885820F931FBC016F5F7F4F298593
:1056A0003A85C901880F991F820F931F880F991F90
:1056B0009C01265030408F819885A901480F591FC1
:1056C000CB01880F991F880F991F9C01220F331F50
:1056D000220F331F220F331F820F931F840F951F3A
:1056E000880F991FFC01EF56FC4F81E090E09183F9
:1056F000808329853A854F815885C901880F991F74
:10570000820F931F880F991F840F951FFC01E85A81
:10571000FC4F80818130A1F029853A854F815885E1
:10572000C901880F991F820F931F880F991F840F3B
:10573000951FFC01E85AFC4F8081853009F078C044
:1057400029853A85C901880F991F820F931F880FF9
:10575000991F9C018F819885820F931FBC016F5FF9
:105760007F4F89859A859C012F5F3F4FC901880F24
:10577000991F820F931F880F991F9C018F81988515
:10578000A901480F591FCB01880F991F880F991F36
:105790009C01220F331F220F331F220F331F820F52
:1057A000931F840F951F880F991FFC01EF56FC4F24
:1057B00081E090E09183808389859A859C012F5FA9
:1057C0003F4FC901880F991F820F931F880F991FA0
:1057D0009C018F819885B901680F791F29853A85C9
:1057E000C901880F991F820F931F880F991F9C0171
:1057F0008F819885820F931FAC014F5F5F4FCB0164
:10580000880F991F880F991F9C01220F331F220FA9
:10581000331F220F331F820F931F840F951F880F92
:10582000991FFC01EF56FC4F81E090E0918380834B
:1058300029853A854F815885C901880F991F820FA4
:10584000931F880F991F840F951FFC01E85AFC4F86
:1058500080818230A1F029853A854F815885C90120
:10586000880F991F820F931F880F991F840F951F10
:10587000FC01E85AFC4F8081863009F078C08985A8
:105880009A859C012F5F3F4FC901880F991F820F96
:10589000931F880F991F9C018F819885B901680F0C
:1058A000791F29853A85C901880F991F820F931F97
:1058B000880F991F9C018F819885820F931FAC01DF
:1058C00041505040CB01880F991F880F991F9C01B0
:1058D000220F331F220F331F220F331F820F931FFC
:1058E000840F951F880F991FFC01EF56FC4F81E034
:1058F00090E09183808329853A85C901880F991F9B
:10590000820F931F880F991F9C018F819885820FAA
:10591000931FBC016150704089859A859C012F5F5F
:105920003F4FC901880F991F820F931F880F991F3E
:105930009C018F819885A901480F591FCB01880FC1
:10594000991F880F991F9C01220F331F220F331FAD
:10595000220F331F820F931F840F951F880F991FEB
:10596000FC01EF56FC4F81E090E091838083298514
:105970003A854F815885C901880F991F820F931F5F
:10598000880F991F840F951FFC01E85AFC4F8081F6
:105990008330A1F029853A854F815885C901880F48
:1059A000991F820F931F880F991F840F951FFC0169
:1059B000E85AFC4F8081873009F076C029853A8506
:1059C000C901880F991F820F931F880F991F9C018F
:1059D000265030408F819885B901680F791F29853D
:1059E0003A85C901880F991F820F931F880F991F4D
:1059F0009C018F819885820F931FAC0141505040CC
:105A0000CB01880F991F880F991F9C01220F331F0C
:105A1000220F331F220F331F820F931F840F951FF6
:105A2000880F991FFC01EF56FC4F81E090E09183B5
:105A3000808329853A85C901880F991F820F931F9A
:105A4000880F991F9C018F819885820F931FBC013D
:105A50006150704029853A85C901880F991F820FCE
:105A6000931F880F991F9C01265030408F81988585
:105A7000A901480F591FCB01880F991F880F991F43
:105A80009C01220F331F220F331F220F331F820F5F
:105A9000931F840F951F880F991FFC01EF56FC4F31
:105AA00081E090E0918380831E821D82F7C01C827A
:105AB0001B82E9C02D813E814B815C81C901880F29
:105AC000991F820F931F880F991F840F951FFC0148
:105AD000E85AFC4F8081843098F02D813E814B81C3
