:100000000C942A000C9445000C9445000C94450077
:100010000C9445000C9445000C9445000C9445004C
:100020000C9445000C9445000C9445000C9445003C
:100030000C9445000C9445000C9445000C9445002C
:100040000C9445000C9445000C9445000C9445001C
:100050000C94450011241FBECFE5D8E0DEBFCDBF14
:1000600010E0A0E6B0E0E8E1F4E102C005900D92F6
:10007000A036B107D9F710E0A0E6B0E001C01D92AC
:10008000A036B107E1F70C9447000C940000CFE5CF
:10009000D8E0DEBFCDBF8FEF87BB80E090E0019757
:1000A000F1F78EB580688EBD8EB580648EBD8EB53D
:1000B00083608EBD8EB58B7F8EBD86B597B5892B3F
:1000C000E1F317BC16BC1DBC1CBC80E29EE401978A
:1000D000F1F786B597B5892BE1F386B5282F33273D
:1000E000CAE0D0E087B59927982F8827282B392B8D
:1000F0001DBC1CBC17BC16BCC29F8001C39F100D49
:10010000D29F100D1124000F111F000F111FC801E5
:10011000AA2797FDA095BA2FBC01CD010E944A09DC
:1001200017FF06C020E030E040E857E40E94A50831
:1001300023EA39EE4BEB59E40E94E7085B016C01BE
:100140008CE188BB20E030E04AE753E4C601B5010A
:100150000E94C4097B018C0120E030E040E85FE3AD
:100160000E94540988231CF481E090E013C020E031
:100170003FEF4FE757E4C801B7010E94570918162F
:100180001CF480E090E006C0C801B7010E942D0970
:10019000DC01CB010197F1F782E288BB20E030E07F
:1001A0004AE753E4C601B5010E94C4097B018C01F2
:1001B00020E030E040E85FE30E94540988231CF40B
:1001C00081E090E013C020E03FEF4FE757E4C80123
:1001D000B7010E94570918161CF480E090E006C091
:1001E000C801B7010E942D09DC01CB010197F1F78D
:1001F00081E488BB20E030E040E850E4C601B5016E
:100200000E94C409DC01CB0120E030E04AE753E45E
:10021000BC01CD010E94C4097B018C0120E030E0CB
:1002200040E85FE30E94540988231CF481E090E0D9
:1002300013C020E03FEF4FE757E4C801B7010E9429
:10024000570918161CF480E090E006C0C801B701F9
:100250000E942D09DC01CB010197F1F782E288BBF6
:1002600020E030E04AE753E4C601B5010E94C4092A
:100270007B018C0120E030E040E85FE30E945409FC
:1002800088231CF481E090E013C020E03FEF4FE7AB
:1002900057E4C801B7010E94570918161CF480E002
:1002A00090E006C0C801B7010E942D09DC01CB0116
:1002B0000197F1F718BA20E030E040E250E4C601BF
:1002C000B5010E94C409DC01CB0120E030E04AE71F
:1002D00053E4BC01CD010E94C4097B018C0120E0E4
:1002E00030E040E85FE30E94540988231CF481E079
:1002F00090E013C020E03FEF4FE757E4C801B7019B
:100300000E94570918161CF480E090E006C0C8014E
:10031000B7010E942D09DC01CB010197F1F781E0C3
:1003200088BB20E030E04AE753E4C601B5010E94F3
:10033000C4097B018C0120E030E040E85FE30E94CB
:10034000540988231CF481E090E013C020E03FEFC3
:100350004FE757E4C801B7010E94570918161CF46B
:1003600080E090E006C0C801B7010E942D09DC01C1
:10037000CB010197F1F782E088BB20E030E04AE74B
:1003800053E4C601B5010E94C4097B018C0120E041
:1003900030E040E85FE30E94540988231CF481E0C8
:1003A00090E013C020E03FEF4FE757E4C801B701EA
:1003B0000E94570918161CF480E090E006C0C8019E
:1003C000B7010E942D09DC01CB010197F1F784E010
:1003D00088BB20E030E04AE753E4C601B5010E9443
:1003E000C4097B018C0120E030E040E85FE30E941B
:1003F000540988231CF481E090E013C020E03FEF13
:100400004FE757E4C801B7010E94570918161CF4BA
:1004100080E090E006C0C801B7010E942D09DC0110
:10042000CB010197F1F788E788BB20E030E04AE78D
:1004300053E4C601B5010E94C4097B018C0120E090
:1004400030E040E85FE30E94540988231CF481E017
:1004500090E013C020E03FEF4FE757E4C801B70139
:100460000E94570918161CF480E090E006C0C801ED
:10047000B7010E942D09DC01CB010197F1F784E05F
:1004800088BB20E030E04AE753E4C601B5010E9492
:10049000C4097B018C0120E030E040E85FE30E946A
:1004A000540988231CF481E090E013C020E03FEF62
:1004B0004FE757E4C801B7010E94570918161CF40A
:1004C00080E090E006C0C801B7010E942D09DC0160
:1004D000CB010197F1F782E088BB20E030E04AE7EA
:1004E00053E4C601B5010E94C4097B018C0120E0E0
:1004F00030E040E85FE30E94540988231CF481E067
:1005000090E013C020E03FEF4FE757E4C801B70188
:100510000E94570918161CF480E090E006C0C8013C
:10052000B7010E942D09DC01CB010197F1F781E0B1
:1005300088BB20E030E04AE753E4C601B5010E94E1
:10054000C4097B018C0120E030E040E85FE30E94B9
:10055000540988231CF481E090E013C020E03FEFB1
:100560004FE757E4C801B7010E94570918161CF459
:1005700080E090E006C0C801B7010E942D09DC01AF
:10058000CB010197F1F718BA20E030E040E250E4E7
:10059000C601B5010E94C409DC01CB0120E030E0B6
:1005A0004AE753E4BC01CD010E94C4097B018C01E0
:1005B00020E030E040E85FE30E94540988231CF407
:1005C00081E090E013C020E03FEF4FE757E4C8011F
:1005D000B7010E94570918161CF480E090E006C08D
:1005E000C801B7010E942D09DC01CB010197F1F789
:1005F0008FE788BB20E030E04AE753E4C601B5014D
:100600000E94C4097B018C0120E030E040E85FE3F8
:100610000E94540988231CF481E090E013C020E07C
:100620003FEF4FE757E4C801B7010E94570918167A
:100630001CF480E090E006C0C801B7010E942D09BB
:10064000DC01CB010197F1F789E488BB20E030E0C1
:100650004AE753E4C601B5010E94C4097B018C013D
:1006600020E030E040E85FE30E94540988231CF456
:1006700081E090E013C020E03FEF4FE757E4C8016E
:10068000B7010E94570918161CF480E090E006C0DC
:10069000C801B7010E942D09DC01CB010197F1F7D8
:1006A00089E488BB20E030E04AE753E4C601B501A5
:1006B0000E94C4097B018C0120E030E040E85FE348
:1006C0000E94540988231CF481E090E013C020E0CC
:1006D0003FEF4FE757E4C801B7010E9457091816CA
:1006E0001CF480E090E006C0C801B7010E942D090B
:1006F000DC01CB010197F1F789E488BB20E030E011
:100700004AE753E4C601B5010E94C4097B018C018C
:1007100020E030E040E85FE30E94540988231CF4A5
:1007200081E090E013C020E03FEF4FE757E4C801BD
:10073000B7010E94570918161CF480E090E006C02B
:10074000C801B7010E942D09DC01CB010197F1F727
:1007500089E488BB20E030E04AE753E4C601B501F4
:100760000E94C4097B018C0120E030E040E85FE397
:100770000E94540988231CF481E090E013C020E01B
:100780003FEF4FE757E4C801B7010E945709181619
:100790001CF480E090E006C0C801B7010E942D095A
:1007A000DC01CB010197F1F789E488BB20E030E060
:1007B0004AE753E4C601B5010E94C4097B018C01DC
:1007C00020E030E040E85FE30E94540988231CF4F5
:1007D00081E090E013C020E03FEF4FE757E4C8010D
:1007E000B7010E94570918161CF480E090E006C07B
:1007F000C801B7010E942D09DC01CB010197F1F777
:1008000086E388BB20E030E04AE753E4C601B50147
:100810000E94C4097B018C0120E030E040E85FE3E6
:100820000E94540988231CF481E090E013C020E06A
:100830003FEF4FE757E4C801B7010E945709181668
:100840001CF480E090E006C0C801B7010E942D09A9
:10085000DC01CB010197F1F718BA20E030E040E26B
:1008600050E4C601B5010E94C409DC01CB0120E0BF
:1008700030E04AE753E4BC01CD010E94C4097B018A
:100880008C0120E030E040E85FE30E9454098823B7
:100890001CF481E090E013C020E03FEF4FE757E405
:1008A000C801B7010E94570918161CF480E090E0B7
:1008B00006C0C801B7010E942D09DC01CB010197D8
:1008C000F1F78CE188BB20E030E04AE753E4C60151
:1008D000B5010E94C4097B018C0120E030E040E8B2
:1008E0005FE30E94540988231CF481E090E013C068
:1008F00020E03FEF4FE757E4C801B7010E945709D6
:1009000018161CF480E090E006C0C801B7010E94F0
:100910002D09DC01CB010197F1F782E288BB20E0D1
:1009200030E04AE753E4C601B5010E94C4097B01E7
:100930008C0120E030E040E85FE30E945409882306
:100940001CF481E090E013C020E03FEF4FE757E454
:10095000C801B7010E94570918161CF480E090E006
:1009600006C0C801B7010E942D09DC01CB01019727
:10097000F1F781E488BB20E030E04AE753E4C601A8
:10098000B5010E94C4097B018C0120E030E040E801
:100990005FE30E94540988231CF481E090E013C0B7
:1009A00020E03FEF4FE757E4C801B7010E94570925
:1009B00018161CF480E090E006C0C801B7010E9440
:1009C0002D09DC01CB010197F1F781E488BB20E020
:1009D00030E04AE753E4C601B5010E94C4097B0137
:1009E0008C0120E030E040E85FE30E945409882356
:1009F0001CF481E090E013C020E03FEF4FE757E4A4
:100A0000C801B7010E94570918161CF480E090E055
:100A100006C0C801B7010E942D09DC01CB01019776
:100A2000F1F781E488BB20E030E04AE753E4C601F7
:100A3000B5010E94C4097B018C0120E030E040E850
:100A40005FE30E94540988231CF481E090E013C006
:100A500020E03FEF4FE757E4C801B7010E94570974
:100A600018161CF480E090E006C0C801B7010E948F
:100A70002D09DC01CB010197F1F782E288BB20E070
:100A800030E04AE753E4C601B5010E94C4097B0186
:100A90008C0120E030E040E85FE30E9454098823A5
:100AA0001CF481E090E013C020E03FEF4FE757E4F3
:100AB000C801B7010E94570918161CF480E090E0A5
:100AC00006C0C801B7010E942D09DC01CB010197C6
:100AD000F1F78CE188BB20E030E04AE753E4C6013F
:100AE000B5010E94C4097B018C0120E030E040E8A0
:100AF0005FE30E94540988231CF481E090E013C056
:100B000020E03FEF4FE757E4C801B7010E945709C3
:100B100018161CF480E090E006C0C801B7010E94DE
:100B20002D09DC01CB010197F1F718BA20E030E084
:100B300040E250E4C601B5010E94C409DC01CB01CA
:100B400020E030E04AE753E4BC01CD010E94C40933
:100B50007B018C0120E030E040E85FE30E94540913
:100B600088231CF481E090E013C020E03FEF4FE7C2
:100B700057E4C801B7010E94570918161CF480E019
:100B800090E006C0C801B7010E942D09DC01CB012D
:100B90000197F1F78FE788BB20E030E04AE753E4A4
:100BA000C601B5010E94C4097B018C0120E030E040
:100BB00040E85FE30E94540988231CF481E090E040
:100BC00013C020E03FEF4FE757E4C801B7010E9490
:100BD000570918161CF480E090E006C0C801B70160
:100BE0000E942D09DC01CB010197F1F789E088BB58
:100BF00020E030E04AE753E4C601B5010E94C40991
:100C00007B018C0120E030E040E85FE30E94540962
:100C100088231CF481E090E013C020E03FEF4FE711
:100C200057E4C801B7010E94570918161CF480E068
:100C300090E006C0C801B7010E942D09DC01CB017C
:100C40000197F1F789E088BB20E030E04AE753E400
:100C5000C601B5010E94C4097B018C0120E030E08F
:100C600040E85FE30E94540988231CF481E090E08F
:100C700013C020E03FEF4FE757E4C801B7010E94DF
:100C8000570918161CF480E090E006C0C801B701AF
:100C90000E942D09DC01CB010197F1F789E188BBA6
:100CA00020E030E04AE753E4C601B5010E94C409E0
:100CB0007B018C0120E030E040E85FE30E945409B2
:100CC00088231CF481E090E013C020E03FEF4FE761
:100CD00057E4C801B7010E94570918161CF480E0B8
:100CE00090E006C0C801B7010E942D09DC01CB01CC
:100CF0000197F1F789E288BB20E030E04AE753E44E
:100D0000C601B5010E94C4097B018C0120E030E0DE
:100D100040E85FE30E94540988231CF481E090E0DE
:100D200013C020E03FEF4FE757E4C801B7010E942E
:100D3000570918161CF480E090E006C0C801B701FE
:100D40000E942D09DC01CB010197F1F786E488BBF5
:100D500020E030E04AE753E4C601B5010E94C4092F
:100D60007B018C0120E030E040E85FE30E94540901
:100D700088231CF481E090E013C020E03FEF4FE7B0
:100D800057E4C801B7010E94570918161CF480E007
:100D900090E006C0C801B7010E942D09DC01CB011B
:100DA0000197F1F780E488BB20E030E04AE753E4A4
:100DB000C601B5010E94C4097B018C0120E030E02E
:100DC00040E85FE30E94540988231CF481E090E02E
:100DD00013C020E03FEF4FE757E4C801B7010E947E
:100DE000570918161CF480E090E006C0C801B7014E
:100DF0000E942D09DC01CB010197F1F718BA20E020
:100E000030E040E250E4C601B5010E94C409DC01B3
:100E1000CB0120E030E04AE753E4BC01CD010E9461
:100E2000C4097B018C0120E030E040E85FE30E94D0
:100E3000540988231CF481E090E013C020E03FEFC8
:100E40004FE757E4C801B7010E94570918161CF470
:100E500080E090E006C0C801B7010E942D09DC01C6
:100E6000CB010197F1F78EE388BB20E030E04AE741
:100E700053E4C601B5010E94C4097B018C0120E046
:100E800030E040E85FE30E94540988231CF481E0CD
:100E900090E013C020E03FEF4FE757E4C801B701EF
:100EA0000E94570918161CF480E090E006C0C801A3
:100EB000B7010E942D09DC01CB010197F1F781E414
:100EC00088BB20E030E04AE753E4C601B5010E9448
:100ED000C4097B018C0120E030E040E85FE30E9420
:100EE000540988231CF481E090E013C020E03FEF18
:100EF0004FE757E4C801B7010E94570918161CF4C0
:100F000080E090E006C0C801B7010E942D09DC0115
:100F1000CB010197F1F789E488BB20E030E04AE794
:100F200053E4C601B5010E94C4097B018C0120E095
:100F300030E040E85FE30E94540988231CF481E01C
:100F400090E013C020E03FEF4FE757E4C801B7013E
:100F50000E94570918161CF480E090E006C0C801F2
:100F6000B7010E942D09DC01CB010197F1F789E45B
:100F700088BB20E030E04AE753E4C601B5010E9497
:100F8000C4097B018C0120E030E040E85FE30E946F
:100F9000540988231CF481E090E013C020E03FEF67
:100FA0004FE757E4C801B7010E94570918161CF40F
:100FB00080E090E006C0C801B7010E942D09DC0165
:100FC000CB010197F1F789E488BB20E030E04AE7E4
:100FD00053E4C601B5010E94C4097B018C0120E0E5
:100FE00030E040E85FE30E94540988231CF481E06C
:100FF00090E013C020E03FEF4FE757E4C801B7018E
:101000000E94570918161CF480E090E006C0C80141
:10101000B7010E942D09DC01CB010197F1F78AE7A6
:1010200088BB20E030E04AE753E4C601B5010E94E6
:10103000C4097B018C0120E030E040E85FE30E94BE
:10104000540988231CF481E090E013C020E03FEFB6
:101050004FE757E4C801B7010E94570918161CF45E
:1010600080E090E006C0C801B7010E942D09DC01B4
:10107000CB010197F1F718BA20E030E04AE753E4DA
:10108000C601B5010E94C4097B018C0120E030E05B
:1010900040E85FE30E94540988231CF481E090E05B
:1010A00013C020E03FEF4FE757E4C801B7010E94AB
:1010B000570918161CF480E090E006C0C801B7017B
:1010C0000E942D09DC01CB010197F1F718BA20E04D
:1010D00030E040E250E4C601B5010E94C409DC01E1
:1010E000CB0120E030E04AE753E4BC01CD010E948F
:1010F000C4097B018C0120E030E040E85FE30E94FE
:10110000540988231CF481E090E013C020E03FEFF5
:101110004FE757E4C801B7010E94570918161CF49D
:1011200080E090E006C0C801B7010E942D09DC01F3
:10113000CB010197F1F786B597B5892BE1F386B519
:10114000282F33270C9472005058192EEFD001D05D
:10115000D2C0BA176207730784079507B1F188F404
:101160000EF410940B2EBA2FA02D062E622F202DD8
:10117000072E732F302D082E842F402D092E952FEA
:10118000502DFF275523B9F0591B49F0573E98F0D1
:10119000469537952795A795F0405395C9F776F072
:1011A000BA0F621F731F841F30F487957795679578
:1011B000B795F040939517FA0F2E0895BF1BBB27E4
:1011C000BA0B620B730B840BF6CFDEF6DBC0AED02E
:1011D00001D091C0552359F0992369F09F575F576B
:1011E000951B33F442F4903811F4915805C09BC01C
:1011F00091589F3F09F4C6C0BB271124621773079B
:10120000840730F4660F771F881FBB1F915098F337
:1012100011D00F920FD00F920DD0A0E826173707EC
:1012200048071B0609F0A048BA2F602D7F918F91C7
:1012300000240895A0E80024621773078407B1050D
:1012400028F0621B730B840BB1090A2A660F771F03
:10125000881FBB1FA69581F7089597FB73D09F3712
:1012600038F0FEE9F91B982F872F762F6B2F05C0DA
:1012700086C09695879577956795F150D0F73EF49F
:1012800090958095709561957F4F8F4F9F4F0895F2
:10129000E89403C097FB0EF4F3DFB62F672F782F87
:1012A000892F9EE9002427C00ED05EF004C00BD029
:1012B00026F001C008D019F020F48FEF089580E0E7
:1012C000089581E0089597FB092E052600F868949B
:1012D00030D0E89407FC07C06217730784079507AE
:1012E00021F008F400940794989408959A95BB0F00
:1012F000661F771F881F11249923A1F08823B2F756
:101300009F3F59F0BB0F48F421F4002011F460FF17
:1013100004C06F5F7F4F8F4F9F4F881F97958795B2
:1013200097F908952CC09FEF80EC0895052E0926AB
:1013300007FA440F551F5F3F79F0AA27A51708F059
:1013400051E04795880F991F9F3F31F0BB27B91790
:1013500008F091E0879508959F919F911124E3CF24
:1013600097FB880F991F9F3F31F0BB27B91708F0F3
:1013700091E0879508959F919F911124D4CF66277E
:101380007727882799270895D1DF01D0B4CF9923F3
:1013900039F0552329F09F575F57950F13F49AF1B1
:1013A000F1CF91589F3FE1F3629FA12D0F92BB2790
:1013B000639FA00DB11DEE27729FA00DB11DEE1F02
:1013C000AF93AA27649FB00DE11D739FB00DE11D7F
:1013D000AA1F6627829FB00DE11DA61F5527749F87
:1013E000E00DA11D551F839FE00DA11D561F849F79
:1013F000A00D511D852F7A2F6E2F1F900F908823DF
:101400001AF4939539F48FCF000C111CBB1F661F83
:08141000771F881F01280895D1
:00000001FF
