:100000000C942A000C9445000C9445000C94450077
:100010000C9445000C9445000C9445000C9445004C
:100020000C9445000C9445000C9445000C9445003C
:100030000C9445000C9445000C9445000C9445002C
:100040000C9445000C9445000C9445000C9445001C
:100050000C94450011241FBECFE5D8E0DEBFCDBF14
:1000600010E0A0E6B0E0E8E6F1E202C005900D92F3
:10007000AC36B107D9F712E0ACE6B0E001C01D9292
:10008000AA35B107E1F70C947C0C0C940000CF92D8
:10009000DF92EF92FF920F931F93CF93DF936C0148
:1000A000EB0116161706CCF5C601AA2797FDA095F9
:1000B000BA2FBC01CD010E94CB0FDC01CB0120E0A7
:1000C00030E04AE755E4BC01CD010E9442107B01BB
:1000D0008C0120E030E040E85FE30E94D50F8823E8
:1000E0001CF481E090E013C020E03FEF4FE757E4BD
:1000F000C801B7010E94D80F18161CF480E090E0E8
:1001000006C0C801B7010E94AE0FDC01CB01019708
:10011000F1F721971C161D063CF2DF91CF911F913C
:100120000F91FF90EF90DF90CF9008958FEF87BBF6
:1001300018BA0895282F82958F70982F906398BBD6
:10014000806188BB822F8F70982F906398BB8061ED
:1001500088BB80E0982F9A95F1F78A95F1F708957A
:10016000282F982F92959F70892F806288BB98BB0B
:10017000922F9F70892F806288BB98BB80E0982F58
:100180009A95F1F78A95F1F708950F931F93CF93FE
:10019000DF93EC018B01019721F4862F81580E9497
:1001A000B000229721F4802F81540E94B000DF918B
:1001B000CF911F910F9108950E949A000895AF92D8
:1001C000BF92CF92DF92EF92FF920F931F93CF9344
:1001D000DF93EC015B01CC24DD248881882309F4C2
:1001E00046C080E1C816D10419F480EC0E94B0002A
:1001F00089910E94DC00C501AA2797FDA095BA2F1E
:10020000BC01CD010E94CB0FDC01CB0120E030E02E
:100210004AE755E4BC01CD010E9442107B018C01EC
:1002200020E030E040E85FE30E94D50F88231CF413
:1002300081E090E013C020E03FEF4FE757E4C801B2
:10024000B7010E94D80F18161CF480E090E006C099
:10025000C801B7010E94AE0FDC01CB010197F1F795
:100260000894C11CD11C8881882309F0BACFDF9182
:10027000CF911F910F91FF90EF90DF90CF90BF90A3
:10028000AF900895805D0E949A000895EF92FF92CA
:100290000F931F93CF93DF93CDB7DEB72A970FB697
:1002A000F894DEBF0FBECDBF9C01EE24FF24892B46
:1002B00021F4C7010E94420129C0FE013196C90103
:1002C0006AE070E00E948D10819391930894E11C84
:1002D000F11CC9016AE070E00E948D109B01672B40
:1002E00071F7E114F10491F087010E0D1F1D0894C0
:1002F000E108F10802501040FE01E00FF11F81817A
:1003000092810E944201E114F10489F72A960FB606
:10031000F894DEBF0FBECDBFDF91CF911F910F913B
:10032000FF90EF900895AF92BF92CF92DF92EF923D
:10033000FF920F931F93CF93DF937B018C015A01A0
:100340000E94AE0FDC01CB016C01C601AA2797FD0C
:10035000A095BA2FBC01CD010E94CB0FDC01CB01CF
:100360009C01AD01C801B7010E946B0F7B018C019C
:10037000C1E0D0E0AC16BD0664F020E030E040E221
:1003800051E4C801B7010E9442107B018C01219603
:10039000F1CFC6010E9446018EE20E94DC00C80136
:1003A000B7010E94AE0FDC01CB010E944601DF9134
:1003B000CF911F910F91FF90EF90DF90CF90BF9062
:1003C000AF9008958FEF88BB80E090E00197F1F740
:1003D00030E838BB23E028BB80E49CE90197F1F7C3
:1003E00038BB28BB80EA9FE0FC013197F1F738BBAE
:1003F00028BBFC013197F1F720E628BB22E028BB9F
:100400000197F1F708950E9496000E94E20180E0B2
:100410008A95F1F788E20E94B0008CE00E94B0005B
:1004200086E00E94B00080E80E94B00008959C0120
:1004300083B78A6183BF2CBFBB9A08959C0185B5A1
:100440008A6685BD23BD8F9A08956FEF7FEFE09197
:100450006400F09165009F01FF23A4F04091C0006B
:100460005091C100DF01AE0FBF1FAA56BF4F8D9143
:100470009C91119712978417950761F02150304095
:1004800037FFF5CF6130710541F43093650020935B
:100490006400089561E070E0F5CF3196F093650057
:1004A000E0936400EE0FFF1FEA56FF4F8091C000FB
:1004B0009091C1009183808308950F931F93CF93F0
:1004C000DF93EC0104E610E06AE070E00E948D101A
:1004D0009B01CE016AE070E00E948D10AC018BE0C0
:1004E00090E0289FF001299FF00D389FF00D112416
:1004F000E40FF51FEE0FFF1FEA53FF4F86A597A5E8
:100500000197A1F4F90173E0EE0FFF1F7A95E1F76F
:10051000E20FF31FE40FF51FEE0FFF1FE854FE4F2D
:1005200082899389801791070CF48C01CE016AE0CF
:1005300070E00E948D109B01CE016AE070E00E9485
:100540008D10AC018BE090E0289FF001299FF00D09
:10055000389FF00D1124E40FF51FEE0FFF1FEA5333
:10056000FF4F828D938D0197A1F4F90163E0EE0FA7
:10057000FF1F6A95E1F7E20FF31FE40FF51FEE0F7F
:10058000FF1FE854FE4F82819381801791070CF47E
:100590008C01CE016AE070E00E948D109B01CE01BB
:1005A0006AE070E00E948D10AC018BE090E0289F23
:1005B000F001299FF00D389FF00D1124E40FF51F75
:1005C000EE0FFF1FEA53FF4F828193810197A9F439
:1005D000F90193E0EE0FFF1F9A95E1F7E20FF31F89
:1005E000E40FF51FEE0FFF1FEA55FE4F0190F0815B
:1005F000E02DE017F1070CF48F01CE016AE070E006
:100600000E948D109B01CE016AE070E00E948D1067
:10061000AC018BE090E0289FF001299FF00D389FFE
:10062000F00D1124E40FF51FEE0FFF1FEA53FF4FEB
:10063000868997890197A9F4F90183E0EE0FFF1FDE
:100640008A95E1F7E20FF31FE40FF51FEE0FFF1F8E
:10065000EA54FE4F0190F081E02DE017F1070CF411
:100660008F01C801DF91CF911F910F910895EF92F3
:10067000FF920F931F93CF93DF938091600090912F
:10068000610001969093610080936000FC01E80F87
:10069000F91FE259FF4F2091C0003091C100318312
:1006A00020838F5F9F4F09F4EBC000916000109191
:1006B0006100F801E00FF11FE259FF4F01501040B7
:1006C0001093610000936000C081D181CE010E942F
:1006D0005D029C01CE016AE070E00E948D10FB017A
:1006E000CE016AE070E00E948D10AC01DF0183E072
:1006F000AA0FBB1F8A95E1F7AE0FBF1FA40FB51F4E
:10070000AA0FBB1FA854BE4F2F5F3F4F8D919C91E6
:1007100011978217930709F4ABC02D933C93ABE07C
:10072000EA2EF12CEE9DC001EF9D900DFE9D900DE7
:100730001124FC01E40FF51FEE0FFF1FEA53FF4FDA
:1007400086899789019771F4F8013196F0936100D9
:10075000E0936000EE0FFF1FE259FF4F2197D18316
:10076000C0832196CE016AE070E00E948D109B014B
:10077000CE016AE070E00E948D102E9DF0012F9D49
:10078000F00D3E9DF00D1124E80FF91FEE0FFF1F35
:10079000EA53FF4F82819381019789F4E0916000D1
:1007A000F09161003196F0936100E0936000EE0FEC
:1007B000FF1FE259FF4F2A97D183C0832A96CE01AB
:1007C0006AE070E00E948D109B01CE016AE070E04B
:1007D0000E948D102E9DF0012F9DF00D3E9DF00D7D
:1007E0001124E80FF91FEE0FFF1FEA53FF4F828D10
:1007F000938D019789F4E0916000F091610031964A
:10080000F0936100E0936000EE0FFF1FE259FF4F8D
:100810002196D183C0832197CE016AE070E00E94C7
:100820008D109B01CE016AE070E00E948D102E9D1C
:10083000F0012F9DF00D3E9DF00D1124E80FF91FE2
:10084000EE0FFF1FEA53FF4F86A597A5019781F48E
:10085000E0916000F09161003196F0936100E093C7
:100860006000EE0FFF1FE259FF4F2A96D183C0832D
:1008700080916000909161008F5F9F4F09F015CFCC
:10088000DF91CF911F910F91FF90EF90089597FF07
:1008900003C0909581959F4F77FF03C07095619538
:1008A0007F4F860F971F08958F929F92AF92BF92AE
:1008B000CF92DF92EF92FF920F931F93CF93DF932C
:1008C0006C014B018FEF9FEF909365008093640064
:1008D00031E0A32EB12C1092BF001092BE00EE2486
:1008E000FF24C0E0D0E0870123E0000F111F2A950C
:1008F000E1F70E0D1F1D0C0F1D1F000F111F0854D7
:100900001E4FC4016AE070E00E948D109C012C1BF8
:100910003D0BC4016AE070E00E948D10CB01B9016B
:100920008E199F090E944704F801918380832196C4
:10093000C930D105C4F2C70101967C018930910507
:1009400084F29093BF008093BE0089E090E0909382
:10095000C3008093C200D092C100C092C000E09159
:100960006400F09165003196F0936500E0936400B7
:10097000EE0FFF1FEA56FF4FD182C082C814D90480
:1009800009F4DEC30E943703C091C000D091C100BA
:10099000CE016AE070E00E948D10FB01CE016AE09A
:1009A00070E00E948D10AC01DF0193E0AA0FBB1F25
:1009B0009A95E1F7AE0FBF1FA40FB51FAA0FBB1F7B
:1009C000A854BE4F2D913C91119721503040309347
:1009D000BF002093BE0061E0A616B10409F0CFC0AD
:1009E0008BE090E0E89FB001E99F700DF89F700DDB
:1009F0001124FB01E40FF51FEE0FFF1FEA53FF4F19
:100A0000828D938D019771F4FD018281938182170C
:100A1000930741F42196D093C100C093C0000E9477
:100A20002502ADC0CE016AE070E00E948D109B01EE
:100A3000CE016AE070E00E948D10AC018BE090E086
:100A4000289FF001299FF00D389FF00D1124E40F2D
:100A5000F51FEE0FFF1FEA53FF4F86A597A50197DD
:100A6000D9F4F90183E0EE0FFF1F8A95E1F7E20F59
:100A7000F31FE40FF51FEE0FFF1FE854FE4F22890E
:100A800033898091BE009091BF002817390721F467
:100A900004E0A02EB12C73C0CE016AE070E00E9489
:100AA0008D109B01CE016AE070E00E948D10AC01B8
:100AB0008BE090E0289FF001299FF00D389FF00D0A
:100AC0001124E40FF51FEE0FFF1FEA53FF4F828141
:100AD00093810197D9F4F90113E0EE0FFF1F1A95E6
:100AE000E1F7E20FF31FE40FF51FEE0FFF1FEA55CA
:100AF000FE4F208131818091BE009091BF00281768
:100B0000390721F4B2E0AB2EB12C39C0CE016AE036
:100B100070E00E948D109B01CE016AE070E00E949F
:100B20008D10AC018BE090E0289FF001299FF00D23
:100B3000389FF00D1124E40FF51FEE0FFF1FEA534D
:100B4000FF4F868997890197D1F4F901A3E0EE0F51
:100B5000FF1FAA95E1F7E20FF31FE40FF51FEE0F59
:100B6000FF1FEA54FE4F208131818091BE00909199
:100B7000BF002817390719F473E0A72EB12CF2E053
:100B8000AF16B10409F0EEC0C091C000D091C10011
:100B9000CE016AE070E00E948D109B01CE016AE0F8
:100BA00070E00E948D10AC018BE090E0289FF00176
:100BB000299FF00D389FF00D1124E40FF51FEE0F63
:100BC000FF1FEA53FF4F828193810197F9F4F901E6
:100BD00063E0EE0FFF1F6A95E1F7E20FF31FE40FEA
:100BE000F51FEE0FFF1FEA55FE4F208131818091E6
:100BF000BE009091BF002817390741F42A97D0937F
:100C0000C100C093C0000E942502ACC0CE016AE0C2
:100C100070E00E948D109B01CE016AE070E00E949E
:100C20008D10AC018BE090E0289FF001299FF00D22
:100C3000389FF00D1124E40FF51FEE0FFF1FEA534C
:100C4000FF4F628D738D61307105C9F4F90193E036
:100C5000EE0FFF1F9A95E1F7E20FF31FE40FF51F68
:100C6000EE0FFF1FE854FE4F228133818091BE00BA
:100C70009091BF002817390711F45B0173C0CE01B2
:100C80006AE070E00E948D109B01CE016AE070E086
:100C90000E948D10AC018BE090E0289FF001299F0D
:100CA000F00D389FF00D1124E40FF51FEE0FFF1F1C
:100CB000EA53FF4F868997890197D9F4F90183E0B8
:100CC000EE0FFF1F8A95E1F7E20FF31FE40FF51F08
:100CD000EE0FFF1FEA54FE4F208131818091BE004C
:100CE0009091BF002817390721F403E0A02EB12C02
:100CF00039C0CE016AE070E00E948D109B01CE01E8
:100D00006AE070E00E948D10AC018BE090E0289FBB
:100D1000F001299FF00D389FF00D1124E40FF51F0D
:100D2000EE0FFF1FEA53FF4F86A597A50197D1F459
:100D3000F90113E0EE0FFF1F1A95E1F7E20FF31F21
:100D4000E40FF51FEE0FFF1FE854FE4F2289338991
:100D50008091BE009091BF002817390719F4C4E0B4
:100D6000AC2EB12C63E0A616B10409F0EEC0C09120
:100D7000C000D091C100CE016AE070E00E948D10E9
:100D80009B01CE016AE070E00E948D10AC018BE007
:100D900090E0289FF001299FF00D389FF00D11245D
:100DA000E40FF51FEE0FFF1FEA53FF4F8689978967
:100DB0000197F9F4F901B3E0EE0FFF1FBA95E1F7DF
:100DC000E20FF31FE40FF51FEE0FFF1FEA54FE4F73
:100DD000208131818091BE009091BF002817390792
:100DE00041F42197D093C100C093C0000E94250216
:100DF000ACC0CE016AE070E00E948D109B01CE0174
:100E00006AE070E00E948D10AC018BE090E0289FBA
:100E1000F001299FF00D389FF00D1124E40FF51F0C
:100E2000EE0FFF1FEA53FF4F828193810197D9F4A0
:100E3000F901A3E0EE0FFF1FAA95E1F7E20FF31F00
:100E4000E40FF51FEE0FFF1FEA55FE4F20813181A1
:100E50008091BE009091BF002817390721F472E0FD
:100E6000A72EB12C72C0CE016AE070E00E948D10F6
:100E70009B01CE016AE070E00E948D10AC018BE016
:100E800090E0289FF001299FF00D389FF00D11246C
:100E9000E40FF51FEE0FFF1FEA53FF4F86A597A53E
:100EA0000197D9F4F90163E0EE0FFF1F6A95E1F7AE
:100EB000E20FF31FE40FF51FEE0FFF1FE854FE4F84
:100EC000228933898091BE009091BF00281739078D
:100ED00021F494E0A92EB12C38C0CE016AE070E074
:100EE0000E948D109B01CE016AE070E00E948D107F
:100EF000AC018BE090E0289FF001299FF00D389F16
:100F0000F00D1124E40FF51FEE0FFF1FEA53FF4F02
:100F1000628D738D61307105C1F4F90183E0EE0FCC
:100F2000FF1F8A95E1F7E20FF31FE40FF51FEE0FA5
:100F3000FF1FE854FE4F228133818091BE009091C3
:100F4000BF002817390709F45B0174E0A716B10444
:100F500009F0EEC0C091C000D091C100CE016AE09E
:100F600070E00E948D109B01CE016AE070E00E944B
:100F70008D10AC018BE090E0289FF001299FF00DCF
:100F8000389FF00D1124E40FF51FEE0FFF1FEA53F9
:100F9000FF4F86A597A50197F9F4F90103E0EE0F3D
:100FA000FF1F0A95E1F7E20FF31FE40FF51FEE0FA5
:100FB000FF1FE854FE4F228933898091BE00909133
:100FC000BF002817390741F42A96D093C100C09377
:100FD000C0000E942502ACC0CE016AE070E00E9411
:100FE0008D109B01CE016AE070E00E948D10AC0173
:100FF0008BE090E0289FF001299FF00D389FF00DC5
:101000001124E40FF51FEE0FFF1FEA53FF4F8689EF
:1010100097890197D9F4F90113E0EE0FFF1F1A9594
:10102000E1F7E20FF31FE40FF51FEE0FFF1FEA5485
:10103000FE4F208131818091BE009091BF00281722
:10104000390721F4B3E0AB2EB12C72C0CE016AE0B7
:1010500070E00E948D109B01CE016AE070E00E945A
:101060008D10AC018BE090E0289FF001299FF00DDE
:10107000389FF00D1124E40FF51FEE0FFF1FEA5308
:10108000FF4F628D738D61307105C9F4F901A3E0E2
:10109000EE0FFF1FAA95E1F7E20FF31FE40FF51F14
:1010A000EE0FFF1FE854FE4F228133818091BE0076
:1010B0009091BF002817390711F45B0139C0CE01A8
:1010C0006AE070E00E948D109B01CE016AE070E042
:1010D0000E948D10AC018BE090E0289FF001299FC9
:1010E000F00D389FF00D1124E40FF51FEE0FFF1FD8
:1010F000EA53FF4F828193810197D1F4F90163E0B4
:10110000EE0FFF1F6A95E1F7E20FF31FE40FF51FE3
:10111000EE0FFF1FEA55FE4F208131818091BE0006
:101120009091BF002817390719F492E0A92EB12C2D
:101130008091C0009091C1008815990509F022CCDA
:10114000DF91CF911F910F91FF90EF90DF90CF90A3
:10115000BF90AF909F908F90089588E18AB986E8FC
:1011600080BD89E189B9089585B38F7385BB0895E2
:1011700085B38F7C85BB0895A89AA998AA9AAB9845
:101180000895A89AA998AA98AB980895A898A9989C
:10119000AA9AAB980895A89AA998AA98AB9A089584
:1011A000A998AB9AAB9AAA980895A898A99AAA98D0
:1011B000AB9A0895A89AA99AAA9AAB9A0895AC985E
:1011C000AD9A6CEB72E081E090E00E9447000E94D3
:1011D000B8080895AD98AC9A6CEB72E081E090E0AD
:1011E0000E9447000895AE98AF9A60E273E081E0F4
:1011F00090E00E9447000E94B4080895AF98AE9A0C
:1012000068EE73E081E090E00E9447000E94B4081D
:1012100008950E94C60864E873E081E090E00E94AF
:10122000470008950E94C10864E873E081E090E0FF
:101230000E94470008950E94CB0860E273E081E0BD
:1012400090E00E9447000895CF93DF93C1E0D0E083
:1012500089B399278F719070049709F463C089B39B
:1012600099278F719070029709F449C089B3992723
:101270008F7190700897E9F089B399278F719070FA
:10128000019729F4A898A99AAA98AB984DC089B358
:1012900099278F719070489761F089B399278F7162
:1012A00090700C9731F089B399278F7190704C979B
:1012B00019F40E94C10838C089B399278F719070C2
:1012C0000397E9F089B399278F719070892B61F1A9
:1012D00089B399278F719070079789F089B39927FF
:1012E0008F719070409729F4AA98AB9AA998A89802
:1012F0001BC089B399278F719070069719F40E94CB
:10130000C60812C089B399278F7190704F9751F416
:10131000C130D10529F40E94D5080E94DA0809C01D
:10132000219602C00E94BC0880E090E00197F1F78E
:101330008FCFDF91CF9108950E94BC0868EC70E0D8
:1013400081E090E00E9447000895869B0FC00E94B4
:10135000D5080E94D5086CE370E081E090E00E941F
:1013600047000E94DA0881E090E0089589B3992748
:101370008F719070892B09F463C089B399278F719D
:101380009070049719F40E94BC085AC089B3992739
:101390008F719070029709F443C089B399278F71B8
:1013A0009070089741F189B399278F7190700197D8
:1013B00029F4A898A99AAA98AB9842C089B399270A
:1013C0008F7190704897B9F089B399278F71907099
:1013D000409729F4AA98AB9AA998A89831C089B3E4
:1013E00099278F7190700C9731F089B399278F717D
:1013F00090704C9719F40E94C10822C089B39927B4
:101400008F719070039761F089B399278F719070F5
:10141000079731F089B399278F719070069719F467
:101420000E94C6080DC089B399278F7190704F979D
:1014300039F40E94D5080E94DA0880E090E008950F
:1014400081E090E00197F1F780CF8CB95D9BFECFF2
:1014500080E49CE90197F1F708955F9BFECF80E25D
:101460009EE40197F1F78CB199270895EF92FF92CE
:101470000F931F93CF93DF938C017B018617970700
:101480000CF020C1EC01C80FD91FCA56DF4F4881AC
:1014900059812A813B813093C3002093C20060911F
:1014A0006200709163006430710529F4CA010A96E4
:1014B00028173907C1F06130710529F4CA01019676
:1014C0002817390781F06230710529F4CA010A979B
:1014D0002817390741F06330710551F4CA010197AB
:1014E0002817390729F40E949C090E942409E3C0A7
:1014F0006330710551F49A01265F3F4F8091C2001D
:101500009091C3008217930739F16430710551F44B
:101510009A012F5F3F4F8091C2009091C3008217C4
:101520009307D1F06130710551F49A012A5030408F
:101530008091C2009091C3008217930769F06230D6
:101540007105E9F49A01215030408091C2009091D8
:10155000C3008217930799F40E9409090E94240985
:101560008091620090916300019690936300809354
:101570006200059709F09FC081E090E098C061305B
:10158000710551F49A01265F3F4F8091C2009091FE
:10159000C3008217930739F16230710551F49A0143
:1015A0002F5F3F4F8091C2009091C3008217930735
:1015B000D1F06330710551F49A012A503040809186
:1015C000C2009091C3008217930769F064307105DF
:1015D000E9F49A01215030408091C2009091C300FB
:1015E0008217930799F40E9412090E94240980919E
:1015F0006200909163000197909363008093620072
:10160000892B09F058C084E090E051C06230710528
:1016100051F49A01265F3F4F8091C2009091C30020
:101620008217930731F16330710551F49A012F5FEE
:101630003F4F8091C2009091C30082179307C9F079
:101640006430710551F49A012A5030408091C200F3
:101650009091C3008217930761F06130710559F5CD
:10166000415050408091C2009091C300841795076B
:1016700011F50E941B090E9424098091620090913B
:10168000630002979093630080936200892B31F48A
:1016900084E090E090936300809362008091620008
:1016A000909163008F5F9F4F31F483E090E09093BF
:1016B0006300809362000F5F1F4F22960E151F0577
:1016C0000CF4E5CEDF91CF911F910F91FF90EF9039
:1016D000089540E050E06091640070916500A6E9D3
:1016E000B0E012C08D919C911197FB01E41BF50BAA
:1016F000EE0FFF1FEA56FF4F208131812D933D935E
:10170000918380834F5F5F4FCB0177FD0196959565
:1017100087958417950734F70895EF92FF920F93FA
:101720001F93CF93DF93EE24FF24E0916400F091A8
:101730006500EE15FF05FCF0C6E9D0E0299139916E
:10174000C9016AE070E00E948D106130710599F066
:101750006730710581F0C9016AE070E00E948D1068
:101760008130910541F0079731F00894E11CF11C9C
:10177000EE15FF051CF7870101501040B80180E00D
:1017800090E00E94360A0E942D0A81E60E94250AF6
:101790000E942D0A959A0E942D0A95980E942D0A62
:1017A000B701C8010E94360A83E70E94250A6091AA
:1017B000640070916500C7010E94360A0E94D50836
:1017C0006EE571E081E090E00E9447000E94DA0837
:1017D0000E94F3080E94DF080E94D50889B38F3F5A
:1017E000E9F70E94DA080E94690B809164009091E9
:1017F00065008E199F097C01BC0181E090E00E9488
:10180000360AF701EE0DFF1DEA56FF4F20813181A8
:1018100082819381281B390B2A30310541F5809153
:101820006200909163008230910549F40E94BC08E7
:1018300060E971E081E090E00E94470010C08130D3
:10184000910519F40E9409090AC08430910519F420
:101850000E941B0904C0039739F40E94120981E613
:101860000E94250A0E94240982E090E029C02F5F8F
:101870003F4F51F5C0916200D0916300C130D10556
:1018800041F40E94BC0868E572E0CE010E94470066
:1018900010C0C430D10519F40E9409090AC0C33030
:1018A000D10519F40E941B0904C0229739F40E9443
:1018B000120981E60E94250A0E94240981E090E035
:1018C000909363008093620080916C0090916D0012
:1018D000029719F40E94DA08FDCF609164007091BC
:1018E0006500C70101960E94360ADF91CF911F91D2
:1018F0000F91FF90EF900895C7E5D8E0DEBFCDBF10
:101900000E94AD088FEB81BB80E882BB8FEF84BB68
:1019100015BA1ABA8BBB00E010E0C8010197F1F7C5
:1019200085E30E94250AC8010197F1F789E30E9427
:10193000250AC8010197F1F784E30E94250AC8012E
:101940000197F1F781E090E09093BF008093BE0093
:101950004CED50E0DA01A456BF4FBA01645170401B
:10196000FB01978B868B95A784A711969C938E93EA
:10197000FD01978B868BFA01938382839583848301
:10198000918B808B938B828B6E5F7F4F12964A5E1A
:101990005F4FF1E0A838BF0719F314F38AE090E035
:1019A0009093BF008093BE0083E090E0909363002B
:1019B00080936200AA24BB2402E410E01093C500C7
:1019C0000093C4000E942D0A26E0822E912C28014B
:1019D00096E3692E712C7A82698218017C826B826F
:1019E0007E826D8206E010E0C101820D931D86515A
:1019F0009F4F98878F832D813E81280D391D200FA1
:101A0000311F8091C4009091C500281B390B2130F3
:101A10003105E9F480916200909163008130910575
:101A200019F40E949C0910C08230910519F40E949B
:101A300012090AC08330910519F40E941B0904C0E1
:101A4000049711F40E94090981E090E061C09FEFC2
:101A5000263F3907E9F4809162009091630082305B
:101A6000910519F40E949C0910C08330910519F466
:101A70000E9412090AC08430910519F40E941B09C2
:101A800004C0019711F40E94090982E090E040C06F
:101A9000EFEF2F3F3E07E9F48091620090916300E1
:101AA0008330910519F40E949C0910C0843091057F
:101AB00019F40E9412090AC08130910519F40E949C
:101AC0001B0904C0029711F40E94090983E090E009
:101AD0001FC02A30310501F58091620090916300AA
:101AE0008430910519F40E949C0910C08130910541
:101AF00019F40E9412090AC08230910519F40E945B
:101B00001B0904C0039711F40E94090984E090E0C6
:101B100090936300809362008B819C81880D991D56
:101B2000800F911F9093C5008093C40081E090E0E6
:101B3000EF81F885918380830E94A509019709F0C0
:101B400058C080916C0090916D00019690936D004B
:101B500080936C000E94EA080E94FE080E942409FB
:101B6000F4E5AF16B10419F468E270E02CC028E285
:101B7000A216B10449F464E570E08091C40090912C
:101B8000C5000E9454042FC064E070E08091C4003E
:101B90009091C5000E945404C0906400D0906500EC
:101BA00064E570E08091C4009091C5000E945404E7
:101BB000E0906400F0906500CE14DF048CF488E2BD
:101BC000A82EB12CB5018091C4009091C5000E944F
:101BD00054040E948D0B109237011092360109C0F7
:101BE000B4E5AB2EB12C0E948D0B10929701109290
:101BF0009601015010408F819885029798878F83B6
:101C0000023011050CF0F7CE089481089108ED819F
:101C1000FE813997FE83ED838B819C8109979C839C
:101C20008B83E5EFFFEF2E0E3F1E89819A81099786
:101C30009A838983E7EFFFEF6E0E7F1E85EF9FEF9C
:101C4000480E591E02E010E0F201E40DF51DEE51C0
:101C5000FF4FF887EF8329813A81280D391D200F26
:101C6000311F8091C4009091C500281B390B213091
:101C70003105E9F480916200909163008130910513
:101C800019F40E949C0910C08230910519F40E9439
:101C900012090AC08330910519F40E941B0904C07F
:101CA000049711F40E94090981E090E061C0FFEF00
:101CB000263F3F07E9F480916200909163008230F3
:101CC000910519F40E949C0910C08330910519F404
:101CD0000E9412090AC08430910519F40E941B0960
:101CE00004C0019711F40E94090982E090E040C00D
:101CF0008FEF2F3F3807E9F48091620090916300E5
:101D00008330910519F40E949C0910C0843091051C
:101D100019F40E9412090AC08130910519F40E9439
:101D20001B0904C0029711F40E94090983E090E0A6
:101D30001FC02A30310501F5809162009091630047
:101D40008430910519F40E949C0910C081309105DE
:101D500019F40E9412090AC08230910519F40E94F8
:101D60001B0904C0039711F40E94090984E090E064
:101D70009093630080936200C301880D991D800FCA
:101D8000911F9093C5008093C40081E090E0EF81A3
:101D9000F885918380830E94A509019709F058C0B6
:101DA00080916C0090916D00019690936D008093EE
:101DB0006C000E94EA080E94FE080E942409F4E5D3
:101DC000AF16B10419F468E270E02CC028E2A21644
:101DD000B10449F464E570E08091C4009091C500BD
:101DE0000E9454042FC068E270E08091C40090917A
:101DF000C5000E945404C0906400D090650064E562
:101E000070E08091C4009091C5000E945404E0905D
:101E10006400F0906500CE14DF048CF4A8E2AA2ED2
:101E2000B12CB5018091C4009091C5000E9454046A
:101E30000E948D0B109237011092360109C0F4E513
:101E4000AF2EB12C0E948D0B10929701109296012B
:101E50000F5F1F4F8F819885029698878F83073079
:101E600011050CF4F8CE089481089108ED81FE81EB
:101E70003997FE83ED838B819C8109979C838B83AB
:101E8000E5EFFFEF2E0E3F1E89819A8109979A8315
:101E90008983E7EFFFEF6E0E7F1E85EF9FEF480E01
:101EA000591E92E0891691040CF09CCD60E070E020
:101EB00086E690E00E94DF0064E070E082E090E05F
:101EC0000E94C50044E050E06DEC7CEC86EF92E4AB
:101ED0000E949301FFCF5058192EA6D001D08CC07C
:101EE000BA176207730784079507B1F188F40EF4F7
:101EF00010940B2EBA2FA02D062E622F202D072E08
:101F0000732F302D082E842F402D092E952F502D04
:101F1000FF275523B9F0591B49F0573E98F04695D5
:101F200037952795A795F0405395C9F776F0BA0FE6
:101F3000621F731F841F30F4879577956795B79557
:101F4000F040939517FA0F2E0895BF1BBB27BA0BCD
:101F5000620B730B840BF6CFDEF692C097FB70D04A
:101F60009F3738F0FEE9F91B982F872F762F6B2FBC
:101F700005C083C09695879577956795F150D0F702
:101F80003EF490958095709561957F4F8F4F9F4F50
:101F90000895E89403C097FB0EF4F3DFB62F672F84
:101FA000782F892F9EE9002427C00ED05EF004C050
:101FB0000BD026F001C008D019F020F48FEF08955F
:101FC00080E0089581E0089597FB092E052600F82A
:101FD00068942DD0E89407FC07C062177307840744
:101FE000950721F008F400940794989408959A9521
:101FF000BB0F661F771F881F11249923A1F0882328
:10200000B2F79F3F59F0BB0F48F421F4002011F4C0
:1020100060FF04C06F5F7F4F8F4F9F4F881F979562
:10202000879597F9089529C0052E092607FA440FC8
:10203000551F5F3F79F0AA27A51708F051E0479593
:10204000880F991F9F3F31F0BB27B91708F091E027
:10205000879508959F919F9111245CC097FB880FED
:10206000991F9F3F31F0BB27B91708F091E0879582
:1020700008959F919F9111244DC066277727882747
:1020800099270895D1DF01D0B7CF992339F055238F
:1020900029F09F575F57950F13F49AF1F1CF91589C
:1020A0009F3FE1F3629FA12D0F92BB27639FA00D7D
:1020B000B11DEE27729FA00DB11DEE1FAF93AA2791
:1020C000649FB00DE11D739FB00DE11DAA1F66272F
:1020D000829FB00DE11DA61F5527749FE00DA11D25
:1020E000551F839FE00DA11D561F849FA00D511DFC
:1020F000852F7A2F6E2F1F900F9088231AF49395B7
:1021000039F408C0000C111CBB1F661F771F881F05
:10211000012808959FEF80EC089597FB092E07266C
:102120000AD077FD04D00CD006D000201AF47095A8
:1021300061957F4F0895F6F7909581959F4F08958B
:10214000AA1BBB1B51E107C0AA1FBB1FA617B707DD
:1021500010F0A61BB70B881F991F5A95A9F78095F9
:082160009095BC01CD0108952A
:0C216800FFFF0300FFFF68696B6E0000C2
:00000001FF
