:100000000C942A000C9445000C9445000C94450077
:100010000C9445000C9445000C9445000C9445004C
:100020000C9445000C9445000C9445000C9445003C
:100030000C9445000C9445000C9445000C9445002C
:100040000C9445000C9445000C9445000C9445001C
:100050000C94450011241FBECFE5D8E0DEBFCDBF14
:1000600010E0A0E6B0E0E0E6F7E002C005900D92F7
:10007000A036B107D9F710E0A0E6B0E001C01D92AC
:10008000A236B107E1F70C945A020C9400009C01CF
:1000900085B58A6685BD23BD0895CF92DF92EF9224
:1000A000FF920F931F93CF93DF936C01EB01161612
:1000B0001706CCF5C601AA2797FDA095BA2FBC015B
:1000C000CD010E94ED02DC01CB0120E030E04AE7E7
:1000D00055E4BC01CD010E9464037B018C0120E04A
:1000E00030E040E85FE30E94F70288231CF481E0DF
:1000F00090E013C020E03FEF4FE757E4C801B7019D
:100100000E94FA0218161CF480E090E006C0C801B4
:10011000B7010E94D002DC01CB010197F1F72197D2
:100120001C161D063CF2DF91CF911F910F91FF909D
:10013000EF90DF90CF9008951ABA8FEF8BBB84BBFE
:1001400081B3806A81BB8E98089584E690E00E9416
:1001500047008DEF85BB8FEF90E00E944700089528
:1001600089EF85BB089584E690E00E94470087EF01
:1001700085BB8FEF90E00E944700089586EF85BB16
:10018000089585EF85BB08958FEF85BB08958AEFAD
:1001900085BB08950E94C10062E870E081E090E0B4
:1001A0000E944D000E94BE006CE271E081E090E090
:1001B0000E944D0008950E94C10062E870E081E055
:1001C00090E00E944D000E94B0006CE271E081E07E
:1001D00090E00E944D0008950E94BE00C99BFCCF94
:1001E0000E94C400089589B38F3F19F40E94C10092
:1001F000FACF0E94C4000895CF93DF9389B3992763
:100200008F7190704F9789F40E94C7006EE170E083
:1002100081E090E00E944D000E94C40081E090E0E7
:10022000909361008093600058C089B399278F71C3
:100230009070079749F40E94C10081E090E090938C
:10024000610080936000DACF89B3C82FDD27CF71BA
:10025000D070209779F40E94C7006EE170E081E0D1
:1002600090E00E944D000E94C400D0936100C093B2
:10027000600033C089B399278F719070049751F152
:1002800089B399278F719070029709F189B39927E3
:100290008F719070089761F089B399278F71907072
:1002A000489731F089B399278F7190700C9719F4A2
:1002B0000E94A500A3CF89B399278F7190700397EF
:1002C00031F089B399278F719070069719F40E94C5
:1002D000B30094CF0E94C10091CF80E090E0DF9105
:1002E000CF910895CF93DF9389B399278F71907041
:1002F0004F9789F40E94C7006EE170E081E090E0C2
:100300000E944D000E94C40081E090E09093610043
:100310008093600058C089B3C82FDD27CF71D0709B
:10032000209779F40E94C7006EE170E081E090E0D0
:100330000E944D000E94C400D0936100C0936000F1
:1003400042C089B399278F719070079731F089B3B4
:1003500099278F7190700F9719F40E94C40033C0D1
:1003600089B399278F719070049751F189B39927B8
:100370008F719070029709F189B399278F719070EE
:10038000089761F089B399278F719070489731F081
:1003900089B399278F7190700C9719F40E94A5006A
:1003A000A3CF89B399278F719070039731F089B3E8
:1003B00099278F719070069719F40E94B30094CF1B
:1003C0000E94C10091CFDF91CF910895CF93DF9329
:1003D00089B399278F7190704F9789F40E94C70055
:1003E0006EE170E081E090E00E944D000E94C40048
:1003F00081E090E0909361008093600058C089B3E1
:10040000C82FDD27CF71D070209779F40E94C700E4
:100410006EE170E081E090E00E944D000E94C40017
:10042000D0936100C093600042C089B399278F7157
:1004300090704C9731F089B399278F7190704E97D7
:1004400019F40E94C40033C089B399278F7190704A
:10045000049751F189B399278F719070029709F130
:1004600089B399278F719070089761F089B39927A4
:100470008F719070489731F089B399278F71907080
:100480000C9719F40E94A500A3CF89B399278F7107
:100490009070039731F089B399278F719070069708
:1004A00019F40E94B30094CF0E94C10091CFDF9154
:1004B000CF910895C1E4D8E0DEBFCDBF8FEF90E0CB
:1004C0000E9447000E949C000FEF1FEF0E94FC005B
:1004D000869930C00E94DB000E94FC0098012F5FCB
:1004E0003F4FFE013196019729F48901E20FF31F76
:1004F00082E704C08901E20FF31F8CE680830E942B
:10050000C10064E670E081E090E00E944D000E942E
:10051000EC000E94FC000E94C10064E670E081E0F3
:1005200090E00E944D000E94EC000E9472010E9427
:10053000CA00CCCF0E94F3000E94FC000E94C400BD
:10054000959A68EB7BE081E090E00E944D009598E1
:100550000E94F3000E94FC000E94F3000E94FC0035
:100560008FEF0F3F1807C1F0FE01E00FF11F8181EF
:100570008C3639F40E94DB000E9472010E94CA008E
:1005800006C00E94CA000E94E6010E94DB000E9491
:10059000FC0001501040E4CF80E090E00C94AF03E9
:1005A00097FB70D09F3738F0FEE9F91B982F872F03
:1005B000762F6B2F05C083C09695879577956795A5
:1005C000F150D0F73EF490958095709561957F4FEE
:1005D0008F4F9F4F0895E89403C097FB0EF4F3DF0D
:1005E000B62F672F782F892F9EE9002427C00ED0C1
:1005F0005EF004C00BD026F001C008D019F020F442
:100600008FEF089580E0089581E0089597FB092E0B
:10061000052600F868942DD0E89407FC07C06217FF
:1006200073078407950721F008F4009407949894C1
:1006300008959A95BB0F661F771F881F1124992371
:10064000A1F08823B2F79F3F59F0BB0F48F421F483
:10065000002011F460FF04C06F5F7F4F8F4F9F4FEA
:10066000881F9795879597F9089529C0052E092623
:1006700007FA440F551F5F3F79F0AA27A51708F026
:1006800051E04795880F991F9F3F31F0BB27B9175D
:1006900008F091E0879508959F919F9111245CC087
:1006A00097FB880F991F9F3F31F0BB27B91708F0C0
:1006B00091E0879508959F919F9111244DC06627E1
:1006C0007727882799270895D1DF01D0B7CF9923BD
:1006D00039F0552329F09F575F57950F13F49AF17E
:1006E000F1CF91589F3FE1F3629FA12D0F92BB275D
:1006F000639FA00DB11DEE27729FA00DB11DEE1FCF
:10070000AF93AA27649FB00DE11D739FB00DE11D4B
:10071000AA1F6627829FB00DE11DA61F5527749F53
:10072000E00DA11D551F839FE00DA11D561F849F45
:10073000A00D511D852F7A2F6E2F1F900F908823AB
:100740001AF4939539F408C0000C111CBB1F661FE6
:10075000771F881F012808959FEF80EC0895FFCF31
:00000001FF
